:400000000080002011000000010500000105000008B5044B1A6803F53F5302331A6000F08FFA00BFFA46004010B5054C237833B9044B13B10448AFF300800123237010BDE2
:400040008889FF1F00000000A0AF0000084B10B51BB108490848AFF300800848036803B910BD074B002BFBD0BDE81040184700BF000000008C89FF1FA0AF0000C880FF1FD4
:400080000000000000B583B062B600F0C7FB00F0ABFC214801F006FC002000F0B5FC1F4801F0B8FB01A91E4801F004FC019B013B042B2ED8DFE803F0030B131C250000F0B5
:4000C00063F84FF4FA71642000F066F821E000F05BF84FF4FA71642000F07EF819E000F053F84FF4FA72C821642000F069F810E000F04AF84FF4FA726421C82000F060F822
:4001000007E000F041F84FF47A720021FA2000F057F800F03DF8C2E7B0AF0000B8AF0000F8AF0000F8B50C46174600250BE023780A2B02D10D2000F095FB661C207800F005
:4001400091FB01353446BD42F1DB3846F8BD00BFF8B50F461446002612E000F06DFB054670B100F07FFB01360D2D03D10A2000F079FB0A257B1C3D70013C0A2D02D01F46F3
:40018000002CEADC3046F8BD08B500F0A3FA08BD08B500F037FA08BD38B504460D46002000F0F4FA002000F0FDFA204600F03EFA204600F041FA284600F09CFA38BD00BF1A
:4001C00038B50D46144600F031FA284600F034FA204600F08FFA38BD38B504460D46012000F0D4FA012000F0DDFA204600F01EFA204600F021FA284600F07CFA38BD00BF32
:40020000FEE700BFF0B40022174611E050F82760F3B226F0FF0608E001EB420511F812406D78A5550132013BDBB2002BF4D10137242FEBD9F0BC704708B50A46002101F065
:400240009BFA08BD38B50122304B1A801823304A1370192502321580023213701D21023211800232137077210232118002321370EF21023211800232137040F2AF41023259
:400280001180023213700222224B1A7008224FF040231A70032103F5007319701E4B1B78DBB21E490B701E4B1A8041F25122023B1A8000240CE01B4B1B7803F0010343EA55
:4002C000440404F003044FF4F07000F0C1FB013D0DB1032CEFD115B90320FFF791FF124B4FF480721A8007221A7000220F490A704820023108701A700222033B1A700C4A58
:40030000137843F03F03137038BD00BF80400040824000400043004008010049A146004022420040254200400440004006400040A2430040F8B5184B1B78DBB2174E3478CD
:40034000E4B2174F3D78EDB203F00701154A11701B090132137044F00303337045F003033B708022104B1A704023104A137002321370082302F21D2213702021033211705F
:400380002D3213700A2000F0CBF93D7034704422074B1A70F8BD00BFCF010049F8460040F94600406E5800402D510040095900407658004008B501F069F908BD38B572B602
:4003C0003A4A137843F00403137000240CE0384D630019194A0011462A44084691882858FFF72AFF0134E4B2072CF0D900240BE02F49A3001819420088180622416B006BAF
:40040000FFF7D8FF0134E4B2002CF1D029494FF09040FFF7F7FE284A137843F0020313701032137843F002031370244C237843F040032370A2F58632513A137843F01003CC
:40044000137008221E491F48FFF7B4FF0A221E491E48FFF7AFFF08221D491E48FFF7AAFF08221D491D48FFF7A5FF0A221C491D48FFF7A0FF08221C491C48FFF79BFF1C4A23
:40048000137843F0080313701A4D61232B70FFF7D9FE81232B700122174B1A70FFF74AFF0E2221461548FFF785FF38BDE8460040FCAF00009400004803500140A043004001
:4004C0008C0800480251004094080048C0510040A0080048F2510040A808004812510040B008004820510040BC08004832510040224300400048004004000840B04300401E
:4005000008B501F095F803680C2B00D1FEE7FEE708B5094B1A681044084BC31AB3F5006F02DC054B186005E001F082F80C2303604FF0FF32104608BDCC80FF1FF089FF1F01
:4005400008B5104E104D16E029686B68AC68002204E051F8040B43F8040B0432A242F8D1E868002203E0002143F8041B04328242F9D11035013E002EE6D101F05FF8FFF7CF
:4005800081FDFEE701000000A0B4000008B5104A104B1A60104A136843F40073136000230AE0032B03D80D4A52F8231000E00C490C4A42F8231001332F2BF2D90A4B1A7883
:4005C0000A4B1A70074A0A4B1A60FFF7F7FE08BD0004FA050CED00E014ED00E000000000010500000080FF1FBC760040C080FF1F08ED00E0024A137843F08003137070477F
:4006000077650040024A137803F07F031370704777650040014B1870704700BF07650040014B1870704700BF47650040014B1870704700BF27650040014B1870704700BF70
:4006400037650040014B1870704700BF87650040014B1878704700BF67650040014B1878704700BF5765004008B501E0FFF7F6FFFFF7EEFF10F0100FF8D108BD10B5134A41
:40068000137803F0C00343F009031370104C237843F001032370FF20FFF7BCFFFF20FFF7BFFF2820FFF7C2FF2820FFF7C5FF0020FFF7C8FF00F0D4F9237843F010032370C4
:4006C00000F0D2F9FFF7D0FF10BD00BF776500409765004008B5054B1B7823B9FFF7CEFF0122024B1A70FFF785FF08BDA489FF1F01BE704710B5044605E0084B186800F0A6
:40070000A7F9A4F50044B4F5004FF6D8034B586800FB04F000F09CF910BD00BFD080FF1F08B5034B1B7A00FB03F000F091F908BDD080FF1F70B504460E46074B1D681F28DE
:4007400002D90020FFF7D4FF04F01F04103455F8240045F8246070BD08ED00E038B504460D46072902D90020FFF7C2FF1F2C02D90020FFF7BDFF04F01F0000F1604000F529
:4007800064406D01EDB2057038BD00BF044A137803F07F03C001C0B218431070704700BF30510040044A137803F0FE0300F0010018431070704700BFF05100407222084B55
:4007C0001A702022A3F580731A700622A1331A70472210331A700022B03B1A70704700BF8865004010B500F03BF904460A4A137843F020031370A2F58072137843F01003DD
:4008000013700132137843F01003137000F008F9204600F029F910BD9865004008B5054B1B7823B9FFF7CAFF0122024B1A70FFF7D9FF08BDA589FF1F084B1B78DBB213F0B1
:40084000200F06D0064A1078C0B213F01E0F02D17047002070470020704700BF686400404B650040034B1B7813F0040FFAD1024B18707047696400404964004008B50A28CF
:400880000FD00C2802D0082806D102E04FF4805209E04FF4807206E00020FFF729FF002201E04FF480620021094B198042F2107303FB02F303F6C413064A82FB0302DB179F
:4008C000C3EBE223044A1360044B198008BD00BFDE89FF1FAD8BDB68E489FF1FE089FF1F10B500F0BDF804461E4A137843F0020313701032137843F002031370193A13783E
:4009000043F0010313701032137843F00103137002F5AA521932137843F0030313700422114B1A70013B1A7802F0BF021A701A7842F003021A700822053B1A700222A3F5D7
:400940009753123B1A70094A137843F0080313700A20FFF7E5FE0122054B1A60204600F083F810BDAB4300400E5900402F5B004080E200E010B504460A280DD00C2802D084
:40098000082804D101E0C42207E0442205E00020FFF7AEFEC42200E08422034B1A702046FFF76CFF10BD00BF0A59004008B5102000F044F807210020FFF7D0FE07490020A8
:4009C000FFF7B8FE064A137843F0060313700C20FFF7D0FF0022034B1A8008BD050A000009590040DC89FF1F08B5054B1B7823B9FFF7DCFF0122024B1A70FFF771FF08BD4B
:400A0000A789FF1F704700BF044A137803F0FD03400000F0020018431070704720510040054A137843F0020313701032137843F002031370704700BFA2430040034B1A7819
:400A400000F0F80010431870704700BF824000400230800803D000BF01380046FCD17047EFF3108072B6704780F31088704700BF81F0004102E000BF83F0004330B54FEAF3
:400A800041044FEA430594EA050F08BF90EA020F1FBF54EA000C55EA020C7FEA645C7FEA655C00F0E2804FEA5454D4EB5555B8BF6D420CDD2C4480EA020281EA030382EA5E
:400AC000000083EA010180EA020281EA0303362D88BF30BD11F0004F4FEA01314FF4801C4CEA113102D0404261EB410113F0004F4FEA03334CEA133302D0524263EB4303E6
:400B000094EA050F00F0A780A4F10104D5F1200E0DDB02FA0EFC22FA05F2801841F1000103FA0EF2801843FA05F359410EE0A5F120050EF1200E012A03FA0EFC28BF4CF023
:400B4000020C43FA05F3C01851EBE37101F0004507D54FF0000EDCF1000C7EEB00006EEB0101B1F5801F1BD3B1F5001F0CD349085FEA30004FEA3C0C04F101044FEA4452E3
:400B800012F5800F80F09A80BCF1004F08BF5FEA500C50F1000041EB045141EA050130BD5FEA4C0C404141EB010111F4801FA4F10104E9D191F0000F04BF01460020B1FA20
:400BC00081F308BF2033A3F10B03B3F120020CDA0C3208DD02F1140CC2F10C0201FA0CF021FA02F10CE002F11402D8BFC2F1200C01FA02F120FA0CFCDCBF41EA0C019040FF
:400C0000E41AA2BF01EB0451294330BD6FEA04041F3C1CDA0C340EDC04F11404C4F1200220FA04F001FA02F340EA030021FA04F345EA030130BDC4F10C04C4F1200220FAE8
:400C400002F001FA04F340EA0300294630BD21FA04F0294630BD94F0000F83F4801306BF81F480110134013D4EE77FEA645C18BF7FEA655C29D094EA050F08BF90EA020F85
:400C800005D054EA000C04BF1946104630BD91EA030F1EBF0021002030BD5FEA545C05D14000494128BF41F0004130BD14F580043CBF01F5801130BD01F0004545F0FE4193
:400CC00041F470014FF0000030BD7FEA645C1ABF194610467FEA655C1CBF0B46024650EA013406BF52EA033591EA030F41F4002130BD00BF90F0000F04BF0021704730B587
:400D00004FF4806404F132044FF000054FF0000150E700BF90F0000F04BF0021704730B54FF4806404F1320410F0004548BF40424FF000013EE700BF42004FEAE2014FEAFD
:400D400031014FEA02701FBF12F07F4393F07F4F81F06051704792F0000F14BF93F07F4F704730B54FF4607401F0004521F0004120E700BF50EA010208BF704730B54FF035
:400D800000050AE050EA010208BF704730B511F0004502D5404261EB41014FF4806404F132045FEA915C3FF4DCAE4FF003025FEADC0C18BF03325FEADC0C18BF033202EB87
:400DC000DC02C2F1200300FA03FC20FA02F001FA03FE40EA0E0021FA02F11444C1E600BF70B54FF0FF0C4CF4E06C1CEA11541DBF1CEA135594EA0C0F95EA0C0F00F0DEF891
:400E00002C4481EA030621EA4C5123EA4C5350EA013518BF52EA033541F4801143F4801338D0A0FB02CE4FF00005E1FB02E506F00042E0FB03E54FF00006E1FB03569CF0B4
:400E4000000F18BF4EF0010EA4F1FF04B6F5007F64F5407404D25FEA4E0E6D4146EB060642EAC62141EA55514FEAC52040EA5E504FEACE2EB4F1FD0C88BFBCF5E06F1ED810
:400E8000BEF1004F08BF5FEA500E50F1000041EB045170BD06F0004646EA010140EA020081EA0301B4EB5C04C2BFD4EB0C0541EA045170BD41F480114FF0000E013C00F38E
:400EC000AB8014F1360FDEBF002001F0004170BDC4F10004203C35DA0C341BDC04F11404C4F1200500FA05F320FA04F001FA05F240EA020001F0004221F0004110EBD3703E
:400F000021FA04F642EB06015EEA430E08BF20EAD37070BDC4F10C04C4F1200500FA04F320FA05F001FA04F240EA020001F0004110EBD37041F100015EEA430E08BF20EAC5
:400F4000D37070BDC4F1200500FA05F24EEA020E20FA04F301FA05F243EA020321FA04F001F0004121FA04F220EA020000EBD3705EEA430E08BF20EAD37070BD94F0000FC0
:400F80000FD101F00046400041EB010111F4801F08BF013CF7D041EA060195F0000F18BF704703F00046520043EB030313F4801F08BF013DF7D043EA0603704794EA0C0F32
:400FC0000CEA135518BF95EA0C0F0CD050EA410618BF52EA4306D1D181EA030101F000414FF0000070BD50EA410606BF1046194652EA430619D094EA0C0F02D150EA013674
:4010000013D195EA0C0F05D152EA03361CBF104619460AD181EA030101F0004141F0FE4141F470014FF0000070BD41F0FE4141F4780170BD70B54FF0FF0C4CF4E06C1CEA0D
:4010400011541DBF1CEA135594EA0C0F95EA0C0F00F0A7F8A4EB050481EA030E52EA03354FEA013100F088804FEA03334FF0805545EA131343EA12634FEA022245EA1115E8
:4010800045EA10654FEA00260EF000419D4208BF964244F1FD0404F5407402D25B084FEA3202B61A65EB03055B084FEA32024FF480104FF4002CB6EB020E75EB030E22BFAC
:4010C000B61A754640EA0C005B084FEA3202B6EB020E75EB030E22BFB61A754640EA5C005B084FEA3202B6EB020E75EB030E22BFB61A754640EA9C005B084FEA3202B6EBB6
:40110000020E75EB030E22BFB61A754640EADC0055EA060E18D04FEA051545EA16754FEA06164FEAC30343EA52734FEAC2025FEA1C1CC0D111F4801F0BD141EA00014FF034
:4011400000004FF0004CB6E711F4801F04BF01430020B4F1FD0C88BFBCF5E06F3FF6AFAEB5EB030C04BFB6EB020C5FEA500C50F1000041EB045170BD0EF0004E4EEA11317A
:4011800014EB5C04C2BFD4EB0C0541EA045170BD41F480114FF0000E013C90E645EA060E8DE60CEA135594EA0C0F08BF95EA0C0F3FF43BAF94EA0C0F0AD150EA01347FF48B
:4011C00034AF95EA0C0F7FF425AF104619462CE795EA0C0F06D152EA03353FF4FDAE1046194622E750EA410618BF52EA43067FF4C5AE50EA41047FF40DAF52EA43057FF47A
:40120000EBAE12E74FF0FF3C06E000BF4FF0010C02E000BF4FF0010C4DF804CD4FEA410C7FEA6C5C4FEA430C18BF7FEA6C5C1BD001B050EA410C0CBF52EA430C91EA030F61
:4012400002BF90EA020F0020704710F1000F91EA030F58BF994208BF90422CBFD8176FEAE37040F0010070474FEA410C7FEA6C5C02D150EA013C07D14FEA430C7FEA6C5C23
:40128000D6D152EA033CD3D05DF8040B704700BF8446104662468C461946634600E000BF01B5FFF7B7FF002848BF10F1000F01BD4DF808EDFFF7F4FF0CBF012000205DF86B
:4012C00008FB00BF4DF808EDFFF7EAFF34BF012000205DF808FB00BF4DF808EDFFF7E0FF94BF012000205DF808FB00BF4DF808EDFFF7CEFF94BF012000205DF808FB00BF66
:401300004DF808EDFFF7C4FF34BF012000205DF808FB00BF4FEA410C7FEA6C5C02D150EA013C0AD14FEA430C7FEA6C5C02D152EA033C02D14FF0000070474FF001007047CC
:401340002DE9F04F8C460C460546099E002B4FD18A4217466BD9B2FA82FEBEF1000F0BD0CEF1200520FA05F501FA0EF345EA030C02FA0EF700FA0EF5390CBCFBF1F0BAB20C
:4013800001FB10C300FB02F84FEA154C4CEA0344A04509D9E41900F1FF3380F02881A04540F2258102383C44C8EB0404B4FBF1F301FB134C03FB02F2ACB244EA0C418A429B
:4013C00009D9C91903F1FF3480F00F818A4240F20C81023B39448A1A43EA00400021002E63D022FA0EF2002386E80C00BDE8F08F8B4207D9002E56D0002186E8110008465E
:40140000BDE8F08FB3FA83F1002940F09380A34202D3824200F2FE80851A64EB03039C460120002E41D086E82010BDE8F08F12B90127B7FBF2F7B7FA87FEBEF1000F36D18C
:40144000E41B4FEA17481FFA87F90121B4FBF8F308FB134409FB03F24FEA154C4CEA0444A24207D9E41903F1FF3002D2A24200F2D3800346A41AB4FBF8F008FB104809FB37
:4014800000F9ACB244EA0842914507D9D21900F1FF3402D2914500F2BA802046C9EB020240EA03409BE731463046BDE8F08F07FA0EF7CEF1200C24FA0CF34FEA1748B3FB50
:4014C000F8FA1FFA87F908FB1A3520FA0CFC04FA0EF40AFB09FB4CEA040C4FEA1C4242EA05439B4500FA0EF50AD9DB190AF1FF3280F08B809B4540F28880AAF1020A3B44F8
:40150000CBEB0303B3FBF8F008FB103300FB09F41FFA8CFC4CEA03439C4207D9DB1900F1FF326ED29C426CD902383B441C1B40EA0A418BE7C1F1200E8B4022FA0EFC4CEAE9
:40154000030C24FA0EF74FEA1C49B7FBF9FA1FFA8CF309FB1A7720FA0EF88C400AFB03F548EA04044FEA144848EA0747BD4202FA01F200FA01FB09D917EB0C070AF1FF308C
:4015800041D2BD423FD9AAF1020A67447F1BB7FBF9F509FB157705FB03F3A4B244EA0747BB4208D917EB0C0705F1FF3027D2BB4225D9023D674445EA0A40A0FB0289FF1A6F
:4015C0004F4545464C4614D329D066B3BBEB050367EB040707FA0EFECB40CF404EEA030386E888000021BDE8F08F2346F3E61846DAE6B8EB020569EB0C040138E5E70546D8
:40160000D9E7104692E78246C0E7924678E702383A4443E7084604E7023B3C442AE7C345E7D33C46D1E73146BDE8F08F704700BF014B1868704700BF0885FF1F70B50F4E10
:401640000F4D761BB61018BF002405D0013455F8043B9847A642F9D10A4E0B4D09F00CFF761BB61018BF002406D0013455F8043B9847A642F9D170BD70BD00BF84B4000016
:4016800084B4000090B4000084B40000844641EA000313F0030349D1403A23D30B6803604B6843608B688360CB68C3600B6903614B6943618B698361CB69C3610B6A036259
:4016C0004B6A43628B6A8362CB6AC3620B6B03634B6B43638B6B8363CB6BC36340304031403ADBD230320BD30B6803604B6843608B688360CB68C36010301031103AF3D2BC
:401700000C3205D351F8043B40F8043B043AF9D2043208D0D2071CBF11F8013B00F8013B01D30B8803806046704700BF082A13D38B07B1D010F00303AED0C3F10403D21AF4
:40174000DB071CBF11F8013B00F8013BA4D331F8023B20F8023B9FE7043AD9D3013A11F8013B00F8013BF9D20B7803704B7843708B7883706046704770B4840746D0541E1C
:40178000002A41D0CDB2034602E0621EE4B3144603F8015B9A07F8D1032C2ED9CDB245EA05250F2C45EA054519D9264603F11002103E0F2E42F8105C42F80C5C42F8085C7B
:4017C00042F8045C02F11002F2D8A4F1100222F00F0204F00F041032032C13440DD91E462246043A032A46F8045BFAD8221F22F003020432134404F003042CB1C9B21C44C3
:4018000003F8011BA342FBD170BC704714460346C2E700BF0FB410B5074B82B004AC54F8042B186823468168019400F085F802B0BDE8104004B070470885FF1FF0B505463A
:4018400089B008460C4600F049F8431C144F0393AB6B012604A9022204940590AC680697079601910292B3B1B4F90C309A0406D4626E43F4005322F40052A381626621467D
:40188000284601AA03F05CFF002814BF4FF0FF300A2009B0F0BD284603F02EFDE4E700BF40B00000024B01461868FFF7C7BF00BF0885FF1F0FB410B5074B82B004AC54F8C0
:4018C000042B186823464168019402F085FB02B0BDE8104004B070470885FF1F20F0030110F00300C0F1000051F8043B00F1040C4FEACC0C6FF000021CBF22FA0CF2134355
:401900004FF0010C4CEA0C2C4CEA0C4CA3EB0C0222EA030212EACC1204BF51F8043B0430F4D0C2F1000102EA0102B2FA82F2C2F11F0200EBD20070472DE9F04FC1B01C4662
:401940000891164605460A9004F0E2F803680E9418461793FFF7C2FF16901DB1AB6B002B00F0BD830898B0F90C2093B2990407D4416E42F4005321F40051838141669BB246
:401980001A0740F1E482089A1269002A00F0DF8203F01A030A2B00F0E88200231A46B0460DF1C00ADFF85C94129319930B9325932493CDF88CA01492159298F8003044464A
:4019C000EBB1252B02D11AE0252B03D014F8013F002BF9D1C8EB04058DB1249B259A01332A44072BCAF80080CAF804502592249300F330830AF1080A0B9B2B440B932378B7
:401A0000002B00F0EA814FF0FF3B5D4600231A468DF86F3019460C930793637804F1010808F10108A3F12000582800F24086DFE810F0DC053E063E06E5053E063E063E0618
:401A40003E063E063E065900AA053E066600AA033E06C603CD03CD03CD03CD03CD03CD03CD03CD03CD033E063E063E063E063E063E063E063E063E063E06DD0357053E06B6
:401A800057053E063E063E063E06A2053E063E06BC043E063E063E063E063E06E4043E063E0611053E063E063E063E063E063E063E063E063E063E0644058D0457055705B7
:401AC000570595048D043E063E069D043E06A8044A046D00B0053E06B8053E0621043E063E06ED050E9C236818460C932346002803F104030E9306DA0C9B5B420C93079B2F
:401B000043F00403079398F8003089E7AB460E9A0027079830217823BB4514688DF8701002F104024FF000058DF871308DF86F7040F00201C0F2D18520F0800141F002010E
:401B4000079154EA05010E921193AC4800F0318130AE230943EA0573290904F00F020D461C46835C06F8013D54EA0503F1D130AB9B1B0D930D9B5B45B8BF5B4609930023A1
:401B8000139317B1099B01330993079B13F002030F9302D0099B02330993079B13F08403109340F018810C9B099A9D1A002D40F31281102D2599249A914F27DD1896504643
:401BC0001024BA46089E2F460A9D04E0103F102F00F1080016DD0132894B1031072A2591249280E81800F1DD23AA3146284608F055FA002840F0F880103F102F30A8259971
:401C0000249AE8DC3D4657468246189E01326C18072A25942492CAF80070CAF8045000F3D0809DF86F700AF1080A77B1249B013401330DF16F010122072B259424938AE82C
:401C4000060000F31E820AF1080A0F9B6BB1249B023401331CA90222072B259424938AE8060000F31A820AF1080A109B802B00F02A810D9BC3EB0B07002F33DD614A102FAE
:401C8000249B0F9222DD22464FF0100B0A9D089C04E0103F102F0AF1080A16DD01331032072B259224938AE8000AF2DD23AA2146284608F0F3F9002840F09680103F102F63
:401CC0000DF1C00A259A249BE8DC144601330F9A3C44072B259424938AE8840000F3C5810AF1080A079BDD0500F18E80249B0D9901330C44072B2594CAF80060CAF80410F6
:401D0000249300F3E0810AF1080A079B580736D50C9B099A9D1A002D31DD102D249B384F22DD22461026DDF828B0089C04E0103D102D0AF1080A16DD013331491032072B42
:401D4000259224938AE84200F1DD23AA2146584608F0A4F9002847D1103D102D0DF1C00A259A249BE8DC144601332C44072B25942493CAF80070CAF8045000F38D840B9BA6
:401D80000C9A09998A42ACBF9B185B180B93002C40F05781002324930DF1C00A0DE60027BB458DF86F70C0F2A284079B23F080030793BBF1000F00F06784002400250027DC
:401DC000C6E623AA08990A9808F068F960B99DF86F700DF1C00A259C27E7259B23B10A9823AA089908F05AF9089B9B89590600F10E870B9841B0BDE8F08F00BF78B0000070
:401E000044B0000098B00000119B652B40F3BB801498159900220023FFF74AFA002800F06781249BB049013301340122072B259424938AE8060000F38B860AF1080A1D9BBC
:401E4000129A934203DB079BD8077FF55EAF249B16990133179A0C44072B2594CAF80020CAF80410249300F32B870AF1080A129B5D1E002D7FF749AF9C4A102D249B0F920C
:401E800040F3178110260A9FDDF820B005E00AF1080A103D102D40F30C8101331034072B25942493CAF80090CAF80460EFDD23AA5946384608F0F2F8002895D10DF1C00A17
:401EC000259C249BE5E70C9B099A9F1A002F7FF7D0AE864A102F249B0F922BDD52462146BA46102537460A9C089E06E0AAF1100ABAF1100F02F1080218DD01331031072BFE
:401F000025912493C2F800905560EFDD23AA3146204608F0C3F800287FF466AFAAF1100ABAF1100F30AA2599249BE6DC3E460C465746924601330F9A3C44072B259424937A
:401F40008AE8840000F3D6840AF1080A91E608990A9802F055F8002840F05986089B9B8903F01A030A2B7FF418AD0899B1F90E30002BFFF612AD234632460A9801F0A0F829
:401F800041B0BDE8F08F129B249D012B04F1010405F1010540F35D840123072D2594CAF800602495CAF8043000F36E840AF1080A169A0135179B1444072D25942495CAF83C
:401FC0000030CAF8042000F36D840AF1080A0023149815990022FFF76BF9129B002800F02A835E1E002E40F33583404B102E0F9340F36984CDF834801027B046DDF828B0FC
:40200000089E07E00AF1080AA8F11008B8F1100F40F3568401351034072D25942495CAF80090CAF80470EDDD23AA3146584608F035F800287FF4D8AE0DF1C00A259C249D9C
:40204000E2E723AA08990A9808F028F800283FF4A1AEC9E623AA08990A9808F01FF800287FF4C2AE0DF1C00AC6E423AA08990A9808F014F800287FF4B7AE0DF1C00A259CDD
:4020800030E623AA08990A9808F008F800287FF4ABAE0DF1C00A259CD7E523AA08990A9807F0FCFF00287FF49FAE0DF1C00A259CDBE501330F9A2C44072B259424938AE835
:4020C00024007FF720AE23AA08990A9807F0E6FF00287FF489AE259C0DF1C00A15E60A9803F00AF93EE400BF94B0000098B000001D9D002D40F33B85139B129A9342A8BFC1
:402100001346002B1D460DDD249B2C440133072B2594CAF80060CAF80450249300F30E860AF1080A139B002DA8BF5B1B002B1D4640F32D83C64A102D249B0F9240F3FB8475
:4021400022461027DDF828B0089C05E00AF1080A103D102D40F3EE8401331032072B25922493CAF80090CAF80470EFDD23AA2146584607F093FF00287FF436AE0DF1C00A42
:40218000259A249BE4E798F8003008F101042A2B00F04587A3F13000092898BF002500F2D78614F8013B05EB850500EB4505A3F130000928F5D945EAE575A04632E4079B66
:4021C00043F08003079398F8003029E4A3F1300000231C4618F8013B04EB840400EB4404A3F130000928F5D90C941BE41193AB46002A40F03B87079B43F010030793079B4C
:402200009F0640F18A820E9C073424F00704D4E9002304F108011D4614460E91002A73F10003C0F27483BBF1000F9DF86F70C0F29482079B23F08003079354EA050338D02D
:40224000002D08BF0A2C39D330AE204629460A22002308F06DFE303206F8012D2046294600230A2208F064FE04460D4654EA0503EBD17CE41193AB46002A40F0F386079AAF
:4022800012F0200300F0C7800E9C0027073424F0070303F10801BB450E91D3E900458DF86F70C0F25A8222F08003079354EA0503C6D1BBF1000F00F0E881002440AE303473
:4022C00006F8414D53E41193AB46002A40F0C686079A12F0200375D00E9C0027073424F0070303F10801BB450E91D3E900458DF86F700BDB22F08003079354EA050306D178
:40230000BBF1000F00F0048600240025002730AEE20842EA4572E90804F007030D461446303354EA050206F8013DF1D1079AD2077FF51DAC302B3FF41AAC3022731E06F81F
:40234000012C30AAD21A0D921E4613E41193AB46002A3FF454AF8DF86F1050E7079B43F04003079398F80030FFF75ABB98F800306C2B00F09B84079840F010000790FFF7F1
:402380004FBB002A40F08686079B9F0640F10E830E9A134604330E930B9B1168DD171A462B46C1E90023FFF708BB1193AB46002A40F06486079B43F010030793079A12F063
:4023C000200389D1079911F0100200F0B0820E98BBF1000F024604688DF86F3002F104024FF00005C0F2478521F08001079154EA05010E9284D01F4689E71193AB46002AA1
:4024000040F03886079B43F010030793079A12F020037FF439AF079911F0100200F08A810E98BBF1000F024604688DF86F3002F104024FF00005C0F2218521F08001079165
:4024400054EA05010E921F467FF4FAAE31E700BF98B000001193AB46002A40F01786079BC0489C0640F1DC800E9C073424F0070303F108020E92D3E90045079A12F0010727
:4024800000F0398154EA05033FF489AC9DF8442000278DF87120079A3023BB458DF870308DF86F7042F00203C0F2058522F0800343F002030793FFF74BBB0E9911930A687E
:4024C000002301201F468DF86F309B4613930B1D09908DF898200E930D9026AEFFF755BB1193AB46002A40F0CD85079B0E9C1D0704F1070440F1148324F0070303F10802DD
:402500000E921A685B6814921593159B149D23F00044284621464FF0FF32934BFEF7FAFE002840F07582284621464FF0FF328E4BFEF7D2FE002840F06B82149815990022AD
:402540000023FEF7BFFE002840F0AF849DF86F700799864E21F08001854B0791119903224FF0000B09924729D8BF1E460D92CDF84CB0FFF706BB079B43F00803079398F8D9
:402580000030FFF74DBA98F8003001222B21FFF747BA079B43F02003079398F80030FFF73FBA0E9AAB461668002511938DF86F50141D002E00F05084BBF1000FC0F28D83C3
:4025C0005A462946304603F00BFE002800F09484AB46831B0D9323EAE3730E940993CDF84CB09DF86F70FFF7CCBA98F8003000297FF416AA01222021FFF712BA079B43F092
:402600000103079398F80030FFF70ABA1193AB46002A40F04685079B56489C063FF524AF079BD90640F1B5810E9A00251346043314680E9321E7013B013501361C44072D38
:40264000CAF8006024952594CAF8043000F345810AF1080A199A013514441FAB072D25942495CAF80420CAF800307FF74CAB23AA08990A9807F012FD00287FF4B5AB0DF105
:40268000C00A259CFFF741BB5F464FF0000BCDF834B030AEFFF76EBA23AA08990A9807F0FDFC00287FF4A0AB259CFFF768BB1193002A40F0FA84119A002A3FF48EAB002369
:4026C00001211F4609918DF898208DF86F309B4613930D9126AEFFF758BA26480791119354EA05030E924FF000077FF431AA00240025FFF72DBABBF1000F8DF86F70C0F23C
:40270000348222F08003079354EA05037FF420AABBF1000F7FF451ABB6E7079BDE0640F15C810E9A13461C680433E5170E9322462B4673E5079911F0400740F06C820E9A9E
:40274000BBF1000F134614688DF86F7003F104034FF0000580F250810E9354EA05037FF46FADABE564B00000FFFFEF7F58B0000054B0000078B0000023AA08990A9807F022
:402780008DFC00287FF430AB259C0DF1C00A139A1D9B32441746129A934249DB079AD20746D412990E44F51BCB1A9D42A8BF1D46002D2E460DDD249A2C440132072A2594AF
:4027C000CAF80070CAF80450249200F330830AF1080A002EB4BF1D469D1B002D7FF795AA8A4A102D249B0F927FF763AC10260A9FDDF820B005E00AF1080A103D102D7FF71E
:4028000058AC01331034072B25942493CAF80090CAF80460EFDD23AA5946384607F03EFC00287FF4E1AA0DF1C00A259C249BE4E7249A1698013217990444072A2594CAF89F
:402840000010CAF80400249200F387820AF1080AA7E7079BDF073FF59FAB0123072D2594CAF800602495CAF804307FF7F1AE23AA08990A9807F012FC00287FF4B5AA0DF12B
:40288000C00A259C249DE5E623AA08990A9807F005FC00287FF4A8AA0DF1C00A259C249DFFF786BB23AA08990A9807F0F7FB00287FF49AAA0DF1C00A259C249DFFF787BB31
:4028C0004646DDF8348001350F9B3444072D259424958AE848007FF7BBAE23AA08990A9807F0DCFB00287FF47FAA259C249D0DF1C00AAFE623AA08990A9807F0CFFB0028B2
:402900007FF472AA0DF1C00A259CFFF7B2B964424FF02D0765EB4505BBF1000F8DF86F70FFF68EAC079B23F08003079388E4079911F0400716D00E98BBF1000F03460488DB
:402940008DF86F2003F104034FF00005C0F2A58121F08001079154EA05010E933FF4D0AC1746D4E40E9ABBF1000F134614688DF86F7003F104034FF00005C0F28E81079A1C
:402980000E9322F08002079254EA05027FF4BFACB6E40E9A079B002513F0400F134603F104030CBF146814880E9366E5079BDE060BD4079B5D0608D50E9A136804320E9268
:4029C000BDF82C201A80FEF7F8BF0E9A136804320E920B9A1A60FEF7F0BF079B0E9A13F0400F13463FF49FAEB2F900400433E5170E9322462B4611E4079A0E9322F08002FC
:402A0000079254EA05027FF41BAC52E498B00000149C22462046159C23462146FEF77AFC002840F0BE82119BBBF1FF3F23F020030D9300F04382472B00F03281079B43F4EF
:402A400080731093159B1F1E149B0993B7BF3B46002303F100472D230F93119B662B00F01082462B00F0FC800D9B21A8452B18BF5D461EA908BF0BF10105049003911DA8CD
:402A800002213B460290099A019500910A9801F0C3FB119B0646672B40F04982079BDA0740F1718274190998394600220023FEF7FFFB002840F04F81219B9C4206D93021C6
:402AC0005A1C21921970219B9C42F9D89B1B12930D9B472B00F02B81119B652B40F33682119B662B1D9B139300F0F881139A12998A42C0F2E681079BDB0700F13B8222EA02
:402B0000E2730D92672211920F9A002A40F005810993109B934607939DF86F70FFF731B824F00704236814936368159304F108030E93EAE4144601330F9A2C44072B25941A
:402B400024938AE824003FF717AE0AF1080A1EE623AA08990A9807F0A1FA00287FF444A90DF1C00A259CFFF76AB90E9AB8E5249BB649013301340122072B259424938AE88D
:402B8000060060DC0AF1080A2DB9129B1BB9079BD9077FF5BAA8249B16990133179A0C44072B2594CAF80020CAF80410249300F3D3810AF1080A6D42002D40F3A080A44A99
:402BC000102D0F9240F3D78022461027DDF828B0089C05E00AF1080A103D102D40F3CA8001331032072B25922493CAF80090CAF80470EFDD23AA2146584607F04FFA0028E0
:402C00007FF4F2A80DF1C00A259A249BE4E74FF0FF30FFF7EFB80E98BBF1000F034604888DF86F2003F104034FF00005C0F2AD8121F08001079154EA05010E9317467FF423
:402C4000FFAAFFF736BB23AA08990A9807F026FA00287FF4C9A80DF1C00A1D9D259C93E721A81EA9049003911DA803210290099A3B46CDF804B000910A9801F0CDFA5D4676
:402C80000646119B7419462B7FF40DAF3378302B00F0A5811D9D2C4405E70E93FFF736BBBBF1000F08BF4FF0010BC7E6079B08F1010843F02003079398F80030FEF7B0BE04
:402CC00023AA08990A9807F0E9F900287FF48CA80DF1C00A259CFFF7CAB83046FEF7FEFDAB46034676E423AA08990A9807F0D6F900287FF479A8259C249B0DF1C00A12999C
:402D000001330C44072B25942493CAF80060CAF804107EF7F8AFFFF7D6B90993109B2D2707938DF86F704FF0000BFEF72BBF1D9BD81C2CDB9B452ADB1393D7E623AA0899A9
:402D40000A9807F0ABF900287FF44EA80DF1C00A259CFFF7E7B92346B8E623AA08990A9807F09CF900287FF43FA80DF1C00A1D9B259C16E5144601330F9A2C44072B259473
:402D800024938AE82400AEDC0AF1080AB7E7119A023A1192013B9DF84420002B1D93B8BF5B428DF87C20B4BF2D222B22092B8DF87D2040F3EE800DF18B000446254A82FBFD
:402DC0000321DA17C2EBA10101EB8102A3EB4202303209290B4604F8012DEFDC21463033DAB201F8012D884240F258810DF17E01234601E013F8012B984201F8012BF9D13B
:402E0000431C1B1B0DF17E0213441FAA9B1A129A1993012A13440D9340F3EF800D9B169A134400220D93139223EAE3736CE623AA08990A9807F032F900287EF4D5AF1D9BBB
:402E4000129A259CD31A0DF1C00AC2E494B0000098B00000676666665B46062B28BF06230D9323EAE373B346374613960E940993904EFEF786BE0E92FFF748BA0E921F466F
:402E80006BE421A81EA9049003911DA803210290099A3B46CDF804B000910A9801F0BCF95D46064600EB0B04F0E62D231F468DF86F30FFF74DBB0793FEF74ABE4FF0060B9D
:402EC000BCE5169A129B1344139A0D93002A40F39E80672223EAE373119215E6002B40F3AC80BBF1000F71D1079AD1076ED41A4623EAE3730D9207E62BEAEB73CDF834B07E
:402F0000099383460E9413909DF86F70FEF739BE079B5F46DB0705D540AE302306F8413DFEF725BECDF834B030AEFEF723BE119B472B7FF4B7AD079BDC073FF5A2AE219BD8
:402F40009B1B12930D9B472B3FF4F1AE1D9B21E7A0460025FEF766BD23AA08990A9807F09DF800287EF440AF0DF1C00A1D9D259C249B20E6169A139B134467220D93119279
:402F800023EAE373C0E5219BA0E50E931746FFF7E4BB303330228DF87F308DF87E2020AB33E70799444E21F08001444B0791119903224FF0000B09924729D8BF1E460D929B
:402FC000CDF84CB09DF86F70FEF7DBBD139B169A9D1805EB0B030D9323EAE37394E50998394600220023FEF763F900287FF452AEC5F101051D952C4455E5079B13F0010370
:403000007FF40CAF13930D9B23EAE3737CE5139B0D9AC3F101031A4413460D9259E70E9898F8013005680430002D0E90A046BEF6F7AC4FF0FF35FEF7F3BCBBF1000F02D1F8
:40304000079BDA0707D5169B5D1C05EB0B030D9323EAE37358E501230D9355E58DF86F10FFF736B98DF86F10FFF709B98DF86F10FFF7C1B88DF86F10FFF7C4B98DF86F10F8
:40308000FFF798B98DF86F10FFF72FBA8DF86F10FFF7E5B98DF86F10FFF776B90DF17E03B3E68DF86F10FFF7B6BA8DF86F10FFF702BB00BF8CB0000060B000005CB00000D5
:4030C000F0B50C468989ADF26C4D656E21F00201666AADF80C10E169E789199500250791099606951AAE4FF4806569460096049602950595ADF80E700646FEF71DFC051EF8
:4031000007DB3046694602F051F8002818BF4FF0FF35BDF80C305B0603D5A38943F04003A38128460DF26C4DF0BD00BF2DE9F04F8A46B1F90C10ADF52D7D8E040390069364
:4031400009D4DAF8643041F4005123F40053AAF80C10CAF86430164616F8011B0023089304931F460793DFF8CCB4119171B3DBF8000043185B7803F0080303F0FF0553B315
:40318000DAF80430039C1A4611E0DAF80030DBF800101A7801330A44527815070FD5DAF804200137013ACAF80030CAF80420002AEBDC5146204603F01FFF0028E5D03246C1
:4031C000164616F8011B11910029D0D107980DF52D7DBDE8F08F252940F082802C465378721C782B00F25582DFE813F092005302530253025302530253025302530253025E
:4032000053025302530253025302530253025302530253025302530253025302530253025302530253025302530253025302530253025302530279005302530253025302CA
:40324000980053025302530253025302EE00EE00EE00EE00EE00EE00EE00EE00EE00EE005302530253025302530253025302530253025302E100190153021901530253025B
:4032800053025302140153025302070153025302530253025302530253025302F60053025302890153025302530253025302530253025C014D011901190119014801BD0178
:4032C000530253024001530230012101D40053025302CC0053029D0053025302F6001646DAF80430002B40F34C82DAF8003016F8012C197891427FF469AFDAF8042001337B
:40330000013ACAF80420CAF800300137324657E74FF0FF300DF52D7DBDE8F08F737845F0100516465CE7DAF804300592002B40F37282BE4B032608930A230493DAF80030F8
:4033400001E0CAF800301978421892F801E00EF0080202F0FF08002A00F07D82DAF804200137013A002ACAF8042003F10103E8DC5146039803F040FE002840F0AA81DBF81C
:403380000000DBE7DAF804300592002B40F32D820226D3E7DAF804300592002B45F4087521DDA24B0326089310230493C6E7DAF804300592002B45F0010569DD9C4B0326C2
:4033C00008930A230493B9E704EB840403EB4404303C7378164603E7DAF804300592002B45F40075DDDC5146039803F005FE002840F06F81DBF80000D3E7DAF804300592BB
:40340000002B45F0010517DD884B032608930823049393E7737845F002051646E0E6DAF804300592002B40F3EB81042686E7DAF804300592002BE7DC5146039803F0DCFD8F
:40344000002840F04681DBF80000DDE7EC06059200F1E080680740F1A781069916460B6832461F800B4604330693A9E673786C2B00F0958145F001051646B1E6737845F0E9
:4034800004051646ACE6DAF804300592002B95DC5146039803F0B0FD002840F01A81DBF800008BE7DAF804300592002B40F39581002C08BF012415F0010360D1ED0640F14B
:4034C0004A811D46039E0BE01A44CAF80020514630461D44E41A03F08FFD002840F032819AE80C00A342EFDB1B1B2244CAF804302544CAF80020059E2F44324660E60DF1F0
:4035000050091146484603F013FEDAF804300646002B40F38A81002CDAF8002008BF4FF0FF34E806117878D5A046002500E0117819F801300132002B00F00881DAF80430E0
:403540000135013BA5428AE80C0000F0F880002BEDDC5146039803F04FFD002840F0EE80DAF80020E3E7DAF804300592002B40F364812F4B0326089300230493DEE612ABCC
:403580001846082200210993FEF7F6F815F010030A9300F0B3804FF0000900250DF5A87802F0B0FAA84200F094809AE80C0012F8010B013BCAF80020099A6E1C00924946E2
:4035C000CAF8043008F8050033464246039802F0C3FD431C7DD0002840F097800A9B002B40F0A280C9F800303744013C09F10409DAF804300025002B7CDC5146039803F0C2
:40360000FBFC002876D0002D63D10A9B13B9079B01330793059E3246D2E5069803460568043305932C44A84609E000BF71840000958100000C85FF1FDAF80020117819F8A2
:403640000130501CBBB1DAF80430CAF80000013BCAF80430137808F8013B44450CD0DAF80430002BE8DC5146039803F0C5FC0028E2D045452DD04446651B3FF4A7AD059BAE
:40368000079A069301320023079223702F44324696E503445B78059203F00303012BDAF8043076D0002B3FF789AEF1E6023040F064842E46DAF80430002B00F390835146CB
:4036C000039803F099FC002800F08983002E00F09083079A002A3FF41BAEBAF80C3013F0400F134618BF4FF0FF3318460DF52D7DBDE8F08F002C7FF453AF86E7069A134675
:403700000433D2F80090069347E702300FD1DAF804303546002B3FF743AF5146039803F06BFC0028E6D06EE73744013C60E70A9B3744013C002B3FF459AF59E7A846454611
:403740002F44A4E7002D7FF4D6AEC2E7002D3FF43DAD2F449BE7069D234629680122CDF800A0039801F0E6FD05F104080028B0D0079B059E013307440793CDF818803246CE
:403780001EE55146039803F037FC00283FF4ADAD9FE7002B45F001053FF710AE78E6B37845F0020502361BE5E9070DD4AA070BD53A460698FB170168059EC1E90023034668
:4037C000043306933246FBE4069A059E13681F601346043306933246F2E45146039803F00BFC00283FF464AE73E75146039803F003FC00287FF46DAFDBF8000002269DE5A3
:403800005146039803F0F8FB00287FF462AFDBF80000042692E55146039803F0EDFB00287FF457AFDBF8000083E55146039803F0E3FB00283FF46FAE4BE75146039803F095
:40384000DBFB00287FF445AFAC4B04900893DBF80000032672E5032E00F0C381042E40F08F81039802F054F9631E0268B3F5AE7F0C9240F25F826FF4AE71631840F25D14A8
:403880000E93002654AB0A939946B04633460F960D960B9645F4F065DAF800000178A1F12B0EBEF14E0F00F24A81DFE81EF0EE004801EE0048014801DF004F004F004F00A9
:4038C0004F004F004F004F004F004F0048014801480148014801480148014301480148014801290121014801480111014801480148014801FE004801480148014801480151
:40390000F9004801480148014801F40048014801480148014801480148014301480148014801290121014801480111014801480148014801FE0048014801480148014801D9
:40394000F9004801480148014801F400F34215D125F4C07589F8001009F10109DAF80410013C0139002907F10107CAF8041040F3F4800130CAF80000002C8DD1CDF824804F
:403980009846099B002B40F0D28108F1FF38B8F1010F40F2FB82731E062B14D8022E40F2DD82032E0FD0341FE4B2E643DDF80C804E4419F8011D5246404606F0C3FA4E4528
:4039C000F7D1013F3F1BE9051BD56A0500F1B78219F8011C09F1FF33652907F1FF340AD0452908D05246039806F0ACFA19F8021CBC1EA9F10203524603982746994606F0CF
:403A0000A1FA15F010027FF405AE05F4C063B3F5806F89F8002000F060820D9B002B40F06E820A990022039803F04EFCEB078046894600F1BC8115F0020540F0B881069C2C
:403A400002460B46261D2468FDF764FC002840F0B9824046494607F01BFA06962060079B059E013307933246FFF7AABBEA057FF56DAF0E9A25F0800508F10108002A3FF4B4
:403A80006DAF013A0E92013468E72A067FF576AF25F080055EE7072E7FF470AF082659E7062E7FF46BAF072654E7002B64D1B8F1000F05D105F4E06EBEF5E06F00F00582D7
:403AC000012E02D0042E7FF459AF0136F6B241E7002E4CD1B8F1000F40F0268105F4E06EBEF5E06F00F0F581CDF8248098464CE7022E7FF443AF03262CE700BF9581000068
:403B000005F4A06EBEF5806F05D06A057FF536AFB8F1000FE8D0AA0505D40B9ACDF83C90C2EB08020D9225F4F06545F4C0754FF000080FE7012B7FF421AF02230AE70C9A77
:403B400092F800E071457FF419AFAA057FF516AF25F42075CDF82C80FCE651460398099303F04AFA099B00283FF406AF06E7032EABD0052EA9D001E7022BA1D10323E9E687
:403B8000002C08BF4FF0FF3415F0010240F01681ED0640F1D2801546039E03E01A78024492F801E01EF0080F03F101037FF4A3ACDAF804200135013AAC42CAF80030CAF851
:403BC00004203FF498AC002AE8DC5146304603F013FA00287FF48FACDBF80000DAF80030DCE7621EB2F5AE7F88BF6FF4AE7054AA88BF04EB0009164688BF40F25D141846C4
:403C00003B46049F98BFC1460A9245F458654FF00008A1F12B024D2A60D8DFE802F0775F775F5F4E484848484848485A5A5F5F5F5F5F5F5F4343434343435F5F5F5F5F5F98
:403C40005F5F5F5F5F5F5F5F5F5F5F275F5F5F5F5F5F5F5F4343434343435F5F5F5F5F5F5F5F5F5F5F5F5F5F5F5F5F2705F4C062B2F5007F32D125F4007545F4A0651027C1
:403C800031700136DAF80420013A002ACAF8042041DD0130CAF80000013C1FD0DAF800000178B6E70A2F19DD25F43865E8E7B44A25F4386532F91770E2E72A05E0D517B92F
:403CC00045F4007508276A0540F1E28025F4B065D6E7AB4A32F91770082FE5DCE90504971F4607D50A9B9E4200F2E6800A9B9E423FF46CAA15F0100400F0B6800A9BF61AF2
:403D000046443744059E3246FFF75ABA2A06E5D525F08005B4E751460398049303F06CF9049B0028B8D0D9E7CDF82480984625F480752AE6CDF83880A3E50699DDF80C9090
:403D40000D6801F104082C442E4607E0DAF80030DBF8002019780A4492F801E01EF0080F03F1010115D1DAF80420CAF80010013ACAF804201B7806F8013BB4420AD0DAF86D
:403D80000430002BE2DC5146484603F035F90028DCD03446079A059E0132651B002307922F44CDF8188023703246FFF709BA069A136804320692C3E9008950E612AB414673
:403DC000184608220993FDF7D7FC15F0100970D1069A1346D2F80080043306930026DAF80030DBF800201B7813445B781B0700D434B9B9F1000F7FF40DACC8F8009006E48C
:403E000001F080FE86423FF464AC9AE80C0012F8010B013BCAF80020099A751C009254AA9055CAF8043041462B46039802F094F9421C3FF44EAC00287FF438ACC8F80000CB
:403E400001F04EFE002800F0B080002DD1D054AB039E5C19013D524614F8011D304606F071F8002DF6D1C4E722463470049B0A990398089CA047AA0615D46B074AD5069A28
:403E80001368043206921880079B0133079335E725F46075B9F1000F02D009F1FF39013408F10108EEE6069A1368043206921860EAE70DF1440891E7731E16F8011C524697
:403EC00003981E4606F03EF810E725F4F065012340E525F4F06501263CE50B9A099B9B1A5A42002B3FF49DAD0DF2A323994528BF0DF2A2294846234903F058F991E50F9C3E
:403F00000A2321460398013104F044F90D9BA146C21AE9E715F00102C5D1AC07C3D51A4B089903989942049B0A9951D004F0C6F9069A136804320692C3E90001A4E70A9B73
:403F400099457FF643A919F8011D5246039805F0F9FF0A9B9945F6D1FFF738B90A9B99457FF634A919F8011D5246039805F0EAFF0A9B9945F6D1FFF729B9D8F800005FE735
:403F8000A8B00000CCB00000718400000A9B99457FF61CA919F8011D5246039805F0D2FF0A9B9945F6D1FFF711B92F44013CB9F1000F04D108F104084E46FFF77BBB0646FA
:403FC000FFF778BB284603F0EDF80696206046E504F0E8FAACE700BF30B5044685B040B1856B35B903930292019101F085F901A90EC9204605B0BDE83040FFF797B800BFD0
:4040000038B5304B054618680C4610B1836B002B38D0B4F90C2093B218070CD52069A8B113F001021ED0636900225B42A361A260F0B1002038BDD9063BD5580725D420690E
:4040400042F00803A3819BB20028E9D103F42072B2F5007FE4D02846214601F08DFDA3892069DDE7990758BF6269A2600028E0D1B4F90C301A06DDD543F04003A3814FF093
:40408000FF3038BD01F038F9C3E7216B51B104F14003994204D0284601F06AFAB4F90C20002323632069002322F0240284E80900C6E742F0400209232B604FF0FF30A28194
:4040C00038BD00BF0885FF1F024B13B1024800F005B87047000000000D530000002301461A46184605F0FABF2DE9F04F03690F6983B09F4200F38980013F01F1140600F1E6
:40410000140A56F827305AF827200133B2FBF3F8BB00009306EB030953440193B8F1000F3BD000231C46B446D6465CF804BBDEF800501FFA8BF208FB02324FEA1B4B130CBF
:4041400008FB0B3392B2A41A1FFA83FBAAB22244CBEB154404EB224492B242EA0442E1454EF8042B4FEA24444FEA1343DDD2009B5AF803308BB9019C231F9A450CD254F8C3
:40418000043C4BB9A4F1080302E01A68043B1AB99A4507F1FF37F8D30761044602F028FB00282EDB00235546194608F1010856F8042B2B6890B2081A120C99B2C2EB1343D6
:4041C000421803EB224392B242EA0342B14545F8042B4FEA2341EAD25AF827200AEB87037AB91A1F92450BD253F8042C42B9083B02E01A68043B1AB99A4507F1FF37F8D363
:404200002761404603B0BDE8F08F002003B0BDE8F08F00BF000000002DE9F04F016C99B0814692469B46259C49B1426C012393408B604A6002F0AAF80023C9F84030BBF1CF
:40424000000FD84633DB00232360A34B1A4608EA0303934214D00022002350465946FDF727F8054648B3249A01231360269B002B00F0C58099481860013819B0BDE8F08F96
:4042800042F20F73249A1360BAF1000F00F0A2809348269B002BF0D0C378002B00F0B18000F10803269A136019B0BDE8F08F01232BF000482360C346C7E716AA17AB01924B
:4042C000009352465B46484602F0D2FB5FEA1854099040F08880169D179C2C4404F23243202B40F38A82C3F1400304F2124008FA03F82AFA00F040EA0800FCF7FBFC0123C4
:40430000013CA1F1F8710F930022764BFCF7B4FB6BA3D3E90023FCF763FD6BA3D3E90023FCF7ACFB064620460F46FCF7F3FC68A3D3E90023FCF754FD02460B4630463946B2
:40434000FCF79CFB06460F4606F05AFD00220390002330463946FCF7B5FF002840F02982039E162E00F222825F49524601EBC6015B46D1E90001FCF7C3FF002800F04282F3
:40438000731E039300230D932C1B631E049300F12B8200230693039B002BC0F21C82049A0C9311461944002304910B93229B092B29D8052B40F35286043B22930025229BF7
:4043C000023B032B00F22F86DFE813F02703200232035304424B454AC8F31300002814BF1846104655E7CBF3130343F07F510F955046A4F2FF3441F44011169D84E73C4832
:404400003BE7C31C4EE70021C9F844104846229101F094FF4FF0FF33229A07930E93012308902392C9F840000A93179B002BC0F2CA80039A0E2A00F3C6802B4B03EBC203C4
:4044400018CBCDE90434239B002BC0F2FC8256465F46DDE904AB304652465B463946FCF7E9FD06F0CDFC0446FCF754FC52465B46FCF7B6FC02460B4630463946FCF7FCFAF4
:40448000079E089F04F13005012E3D7002460B4607F101055ED00022164BFCF7A1FC0022002306460F46FCF703FF002878D1CDF81890DDF81CA0DDF820B0DDE9048928E088
:4044C00061436F63A787D23FB3C8608B288AC63FFB799F501344D33F0000F07F95B00000E4B100000000F83FF8B10000D8B1000094B00000000024400022C34BFCF770FC35
:404500000022002306460F46FCF7D2FE002840F0B38342464B4630463946FCF78BFD06F06FFC0446FCF7F6FB42464B46FCF758FC02460B4630463946FCF79EFA04F1300688
:4045400005F8016BCBEB0506564502460B46D3D1DDF8189010461946FCF790FA06460F4602460B46DDE90401FCF7ACFE40B9DDE9040132463B46FCF79BFE88B1E3070FD598
:4045800015F8014C6B1E089A04E09A4200F02C8413F8014D392C03F10105F6D001341C700999484601F0F2FE0022039B2A70249A01331360269B002B00F0A88308981D60E3
:4045C00019B0BDE8F08F0A9A002A00F01281229A012A40F35A82079B0B9A5F1EBA42C0F29883D71B079B002BC0F28C84069D079B069A01211A440692049A48461A4404925C
:4046000001F0A8FF064665B1049900290B4608DDA942A8BF2B46069AED1AD21ACB1A069204930B9B002B40F3FD820A9A002A00F00382002F00F0008231463A46484602F03C
:4046400031F8DDF82480014642460646484601F08BFF41460446484601F098FE0B9BDB1B0B9340F0E8810121484601F073FF0C9B8046002B00F01B8201461A46484602F05C
:4046800011F8229B8046012B40F3F9820027D8F8103008EB8303186901F00EFFC0F12000049A104410F01F0000F0F881C0F12003042B40F3CB84069BC0F11C000344069347
:4046C0001346034405440493069B002B05DD21461A46484602F036F80446049B002B05DD41461A46484602F02DF880460D9B002B40F07D82079B002B40F396820A9B002BE5
:4047000040F0F681DDF820A0079F554604E02146484601F045FE044641462046FFF7E4FC303005F8010BCAEB0503BB424FF00A024FF00003EBDB089B079A8246012AACBFCA
:404740009B1801331D464FF0000B21460122484601F0F8FF4146099002F04AF8002840F30E8315F8012C6B1E089904E08B4200F0798213F8012D392A03F10105F6D00132D6
:404780001A704146484601F001FE002E3FF408AFBBF1000F05D0B34503D05946484601F0F5FD3146484601F0F1FDF9E601230D93EAE5DDF80C804046FCF7ACFA02460B4678
:4047C00030463946FCF774FD00287FF4C9AD08F1FF330393C4E5069A039BD21A5B420B93002306920C93E1E55B42069300230493D1E50B9F069D0A9E05E7C3F120080AFAF9
:4048000008F07AE50D90BFE50000244000230A93039B239A13440E930133002B079340F38582079C26460021172EC9F844100BD9012204235B0003F11400B042114602F1DF
:404840000102F7D9C9F84410484601F077FD0E2C0890C9F840003FF6E8AD002D3FF4E5AD5746D8460399CDE91078002940F39382924B01F00F020E1103EBC203F006D3E965
:40488000004540F14E828E4B5046D3E908235946FCF7D0FB82468B4606F00F064FF0030886B1874FF10709D5D7E9002320462946FCF796FA04460D4608F10108761007F1D6
:4048C0000807EFD122462B4650465946FCF7B2FB06460F460D9B43B100227A4B30463946FCF7F0FC002840F023834046FCF712FA32463B46FCF774FA734B0022FCF7BEF8DD
:40490000079B0446A1F15075002B00F0E181039B1393079B12930A9B002B00F09882129A664B002003EBC20353E902236749FCF781FB22462B46FCF79FF882468B46304630
:40494000394606F05DFA0446FCF7E4F902460B4630463946FCF790F83034089DE4B206460F462C7002460B46504659460135FCF7C7FC00284ED132463B4600205149FCF7C5
:404980007BF802460B4650465946FCF7B9FC002840F00E83129A012A40F3B481129B089A134498460FE032463B4600204549FCF763F852465B46FCF785FC002840F0F882FF
:4049C000454500F09F81504659460022404BFCF707FA00223E4B82468B4630463946FCF7FFF90F46064606F00BFA0446FCF792F902460B4630463946FCF73EF83034E4B20E
:404A000005F8014B52465B4606460F46FCF75AFC0028C8D0139B0393C2E500230A93239B002B40F388811E461C460E930793FAE601230A93F3E709940B9A0999484601F09B
:404A400031FE04460FE6079B002B3FF700AD40F0D982DDE9040100221E4BFCF7C1F952465B46FCF743FCDDF81C804646002800F0F180239B089DDB4303934146484601F07C
:404A800085FC002E3FF48CAD8BE60F9A002A00F0418203F233430B9F069DA9E51C20069B054403440693049B034404930CE6229B012B40F381820C9F0120F1E5F8B10000BF
:404AC000C0B200000000F03F00001C400000E03F0000244000001440314600230A22484601F05EFC0E9B0646002B40F397820793002D05DD31462A46484601F023FE06465B
:404B0000002F40F07B810696079B089A013BD318099317460AF00103C246DDF818B00A9351462046FFF7E0FA31460546204601F05FFE5A4604905146484601F079FEC268AC
:404B4000804605F13003002A49D101462046079301F04EFE41460690484601F017FC069A079B2AB9229919B90A99002900F0368204990029C0F2E48005D1229919B90A99C7
:404B8000002900F0DD80002A00F34C81099A07F1010897423B70454600F05381214600230A22484601F0FCFB5E45044631464FF000034FF00A0248460BD001F0F1FB59461C
:404BC000064600230A22484601F0EAFB47468346A6E701F0E5FB474606468346A0E701464846069301F0D2FB0122069BC0E74146204601F0FDFD0028BFF67CAD2146039C5E
:404C00000023013C0A224846039401F0C9FB0A9B0446002B7FF460AF0E9B002B40F3F68107936FE5099C1EE5229B022B7FF766AD079B002B40F07A8141460522484601F0C6
:404C4000AFFB01468046204601F0D2FD002809947FF70FAF039A08993123013203920B704D1C0AE7039A312301320392089A137087E501230A93CBE5DDF8189090E4BAF1D8
:404C8000000F7FF403ADCBF31303002B40F040812BF000473F0D3F0537B1069B012701330693049B013304930C9B0120002B3FF4F7ACECE44046FCF72DF832463B46FCF7D5
:404CC0008FF80022BF4BFBF7D9FE0446A1F15075304639460022BC4BFBF7CEFE22462B4606460F46FCF70CFB8046002840F00681224605F1004330463946FCF7E3FA08B183
:404D00004646B6E6DDE910ABFFF78FBB0898FFF7B4BA0B9B0C9AFB1A1A440B970C92002760E4DDE910AB4FF00208B9E51C460021C9F8441088E5012423940E940794F6E7B9
:404D4000002AD046CDF818B09A4611DD21460122484601F0F7FC4146044601F049FD002840F34981BAF1390F00F0078105F1310AB34687F800A07D1C069E099401E504D126
:404D80001AF0010F01D0ECE4154615F8013C6A1E302BF9D0F5E4039B5C42002C00F0C180DDE91001894B04F00F0203EBC203D3E90023FCF715F8241106460F4600F02B81C1
:404DC000834D4FF00208E20709D5D5E9002330463946FCF705F806460F4608F10108641005F10805EFD175E5089930220A70039A15F8014C01320392FFF7D0BB71684846C5
:404E000001F09CFA0546336906F10C019A1C92000C30FCF73BFC29460122484601F092FC069071E6392BCDF818B0D04600F0A58003F1010AB34687F800A07D1C069E0994B9
:404E40009FE45A46D046B3469A4616467DE4129B5E4903F1FF3A01EBCA012246D1E900012B46FBF7BDFFCDE914013946304605F0C7FF0446FBF74EFF0B4602463946304657
:404E8000FBF7FAFD129B0F4608993034012B06460C7001F101051FD0129B089AA84613449B4600224B4B30463946FBF799FF0F46064605F0A5FF0446FBF72CFF02460B4641
:404EC00030463946FBF7D8FD303408F8014BC34506460F46E5D1554400223F4BDDE91401FBF7CCFD32463B46FCF7ECF900284CD0139B039315F8014CFFF744BB4FF000081D
:404F00004646A7E6069B079A9D1A0023FFF770BB0027C9E6169B0B9FC3F13603069DFFF767BBDDE910674FF00208D3E40994A0E5079B002B3FF4BEAE0E9B002B7FF7E2AE9D
:404F40000022244B30463946FBF74AFF06460F4608F10100FBF7DEFE32463B46FBF740FF0022184BFBF78AFD039A0E9B013A04461392A1F150751293CDE43922B3460994D1
:404F8000069E3A707D1CFFF7EEBBDDE9142300201149FBF771FD32463B46FCF7B1F908B9B0E6154615F8013C6A1E302BF9D031E5139B0393FFF7E6BABAF1000F7FF47BAD11
:404FC00061E600BF00001C4000001440F8B10000C0B20000000024400000E03F392BCDF818B0D046DDF810B09A46C6D0BBF1000F3FF7BCAEBCE67FF4BBAE1AF0010F3FF425
:40500000B7AEAFE64FF00008464632E5229B022B21DC0E9B04E64FF002085BE4229B022B19DC0E9B63E50024C9F844402146484601F084F94FF0FF3307930E930123089086
:405040002394C9F840000A93FFF7EFB93FF43CABC0F13C0023E50E9B0793E9E50125FFF7AEB900BFB1F90C302DE9F0419AB20D46110780463CD46A6843F40063002AAB815F
:4050800073DDAC6A002C4BD09BB203F48052002192B2D8F80060C8F80010002A69D02A6D5F0705D569682B6B521A0BB1EB6BD21A0023E9694046A047441C3CD0B5F90C3085
:4050C000296923F400630022AB81DB0485E8060049D4296BC8F8006011B305F14003994202D0404600F044FA00202863BDE8F0812E69AEB190072C680CBF6B6900232E60A3
:40510000A41BAB600AE0234632466F6AE9694046B8470028A4EB0004064404DD002CF2DC0020BDE8F081AB894FF0FF3043F04003AB81BDE8F081D8F800201D2AF3D81A4B53
:40514000D34003F0010383F00104002BEBD0B5F90C30296923F400632960D9046C60AB81B7D5002AB5D12865B3E7EA6B002A88DCD6E70123E9694046A047431C024602D014
:40518000AB89AC6A8CE7D8F80030002BF8D01D2B01D0162B02D1C8F80060C1E7AB8943F04003AB81BDE8F0810100402010B5044682B008B1836B53B1B1F90C0008B902B0E8
:4051C00010BD204602B0BDE81040FFF74BBF019100F092F80199EFE720B1054B01461868FFF7E4BF034B0449186800F051BC00BF0885FF1F3CB00000AD510000014900F032
:4052000047BC00BF05A200002DE9F04F074635487D68002407F53B7204230321F863C7F8E412C7F8E822C7F8E04283B02C606C60AC606C66EC812C616C61AC61AB8121465F
:4052400005F15C000822FCF797FADFF89CB0BE68DFF898A0DFF89890DFF8988001230922C5F820B0C5F824A0C5F82890C5F82C80ED612146F381B28106F15C003460746096
:40528000B460746634617461B46108220193FCF773FAFD6812200222F661C6F820B0C6F824A0C6F82890C6F82C802146A881EA812C606C60AC606C662C616C61AC6105F1D3
:4052C0005C000822FCF758FA019BED61C5F820B0C5F824A0C5F82890C5F82C80BB6303B0BDE8F08FFD510000F97100001D7200005972000079720000836B03B17047FFF7CC
:4053000083BF00BF704700BF704700BF38B5074D074C2C1BA41005D0013C55F8043D9847002CF9D1BDE8384006F0B2B8A0B400009CB400002DE9F04F02FB03F683B0DDF808
:4053400030B0002E49D0914698460C46054618B1826B002A00F0AC80BBF90C2091B288040AD4DBF8641042F4005221F40050ABF80C2091B2CBF86400DBF80470002F37DB36
:405380008B073A463BD4B24614E0DBF8001020463A46FCF77BF9DBF8003059463B44CBF800302846C7EB0A0A3C4401F025FEC0B9DBF80470BA45E8D85246DBF80010204674
:4053C000FCF764F99BE806004046CAEB020251448BE8060003B0BDE8F08F304603B0BDE8F08FCAEB0606B6FBF9F003B0BDE8F08F00208B0702460746CBF80400C3D5B24297
:40540000134628BF3346DBF800101A4620460093FCF73CF9DBF80070009BDBF80420DBF8301007EB030AD21ACBF800A0CBF80420F71A002949D0002F45D00BF1400081429C
:4054400006D02846009300F093F8DBF800A0009B0021CBF83010DBF81020DBF814101C440096CDF804801646A0465446AA460D4600E037B3CBF81080CBF81470CBF80080A9
:405480005946504601F0B8FDDBF804100023CBF81060CBF81450CBF800407F1A8844CBF804300028E5D0009EF61BB6FBF9F091E7FFF722FFBBF90C2091B288043FF55CAFAB
:4054C0004FE7DDF80480404684E7002FC3D1404680E700BFF8B50C46224F064600F02AFFBB685D6825F00305291B01F6EF7121F47F6121F00F01A1F58054B4F5805F07DB5E
:405500000021304601F002FEBB682B44984204D0304600F011FF0020F8BD6142304601F0F5FD01300DD0104BBA6819682D1B45F001053046091B5560196000F0FDFE0120F9
:40554000F8BD0021304601F0E1FDBA68831A0F2BDEDD064C0449246843F00103001B53600860D5E76C85FF1FB489FF1F7889FF1F002945D02DE9F0410D46804600F0DAFE19
:4055800055F8047C6A49A5F1080427F00103E2188E685068B24220F0030062D0FE0750600BD455F8087C01F1080EE41BA5683B4475456FD0E768EF60BD6015186D68ED072B
:4055C00042D543F001026260E350B3F5007F18D2DB0848689D100122013351F8337002FA05F501EBC3022843083AE260A760486041F83340FC604046BDE8F04100F09CBEE2
:4056000070475A0A042A53D89A0902F139077F0002F1380501EB870051F827200838904243494DD0516821F003018B4202D292689042F7D1D068E060A2608460D460404698
:40564000BDE8F04100F078BE95683A4F0344BD423FD0D06843F00102E86085606260E350B3E7FF07034407D455F8085C641BE268A0682B44C26090602F4A43F001001268D7
:40568000606093428C60B6D32C4B40461968FFF721FFB0E711184968C90744D491680344D26843F00100CA6091606060E350A2E7142A17D802F15C077F0002F15B05A9E7C9
:4056C000AA104B68012505FA02F213434B600246B1E743F001024C610C61E560A5606260E35088E7542A06D81A0B02F16F077F0002F16E058EE7B2F5AA7F06D8DA0B02F17B
:4057000078077F0002F1770584E740F25450824206D89A0C02F17D077F0002F17C0579E7FE277E2576E743F001026260E35062E76C85FF1F7485FF1F7489FF1FB089FF1F78
:405740009368002B00F0AB802DE9F04F8B8985B00C4619070290164628D5226932B303F002081FFA88F0356878B34FF00009C846DFF8D0A2B8F1000F00F08B80D045434637
:405780004A4628BF5346E1690298676AB847002840F3A580B36881441B1AC0EB0808B360002BE7D1002005B0BDE8F08F21460298FEF726FC002840F03C81A389356803F0FD
:4057C00002081FFA88F00028CFD113F0010940F090804F460196002F56D09A05D4F808805FD54745C246C0F0BF8013F4906F00F0BD8062692068216902EB4208C1EB000AD1
:4058000008EBD8780AF101004FEA680838444045424684BF804642465B0540F1F2801146029800F0EDF98346002800F0058152462169FBF72BFFA38923F4906343F080030B
:40584000A381CAEB08030BEB0A00C4F81480BA46B846C4F810B02060A3605246494600F005FDA0682368C8EB0000A060384653442360019A814493683F1A1B1A9360002BF9
:4058800090D0A389002FA8D1D5F800906F680835A1E7D5F80090D5F8048008356AE70020704720682369984203D86269974280F08380B84528BFB8464946424600F0D6FC0D
:4058C000A3682268C8EB03034244A3602260002B48D121460298FFF769FC002842D0B4F90C3043F040034FF0FF30A38105B0BDE8F08F8046824681460190B9F1000F29D013
:40590000019B002B4BD0C845C34628BFCB46206823695F469842626903D9A36813449B455CDC934524DB1346676A5246E1690298B847071ED3DDB8EB070827D0B368BA44B0
:40594000DB1BC7EB0909B360002B3FF42BAFB9F1000FD5D10023D5F800A0D5F8049001930835CAE7404684E7B846BA46206874E75A46514600F07AFCA2682368CBEB020292
:405980005B44B8EB0708A2602360D7D121460298FFF70CFC0028A2D1CDF80480CEE74A460A21504600F01CFC00283DD001300123CAEB00080193A6E76FF00043BB4228BF8A
:4059C0003B4693FBF2F3E16902FB03F302984A46666AB04700283FF74CAF80E71A465146039300F043FC2268039B21461A4422600298FFF7DBFB039B00287FF470AF1F4677
:405A000099E7029801F004F9834600287FF419AF029D21692846FFF7ABFDB4F90C300C2223F080032A605CE7012309F10108019369E74FF0FF30B6E6029A0C231360B4F983
:405A40000C304EE700FCFF7F2DE9F04110F538771AD0884600267D68BC68013D0ED4A389013D012B06D9B4F90E30013302D02046C04706436B1C04F16804F0D13F68002F9E
:405A8000E9D13046BDE8F0813E463046BDE8F0812DE9F84310F538761ED0884607464FF000097568B468013D10D4A389013D012B08D9B4F90E30013304D021463846C047CA
:405AC00049EA00096B1C04F16804EED13668002EE7D14846BDE8F883B1464846BDE8F883FF2807D8044B1B681844407800F00800C0B27047002070470C85FF1F004870475A
:405B00004885FF1F014B1868704700BF6885FF1F004870471085FF1F70B50E46B1F90E1090B0002914461D4614DB01AA04F008FC00280FDB029A4FF4806302F47042A2F56F
:405B40000052B2FA82F24FF4006052092A60236010B070BDB289002002F0800292B228601AB14023236010B070BD10464FF48063236010B070BD00BF8A890B46920706D5FF
:405B800001F1430201211A601A6159617047F0B583B001AB6A460C460546FFF7BDFF00990646284600F02CF8B4F90C30D0B19DE80600124F43F08003EF63A38120602061B9
:405BC00061611AB93343A38103B0F0BD2846B4F90E1004F07BFFB4F90C300028F2D043F00103EFE79A05EFD404F1430243F002030121A381226022616161E5E7FD51000094
:405C00002DE9F04F01F10B05162D83B0064640F2A08035F0070500F1C080A94200F2BD8000F088FBB5F5FC7FC0F090826B0A00F0BB80042B00F27781A80900F1390E4FEA48
:405C40004E013830BE4F07EB81014C680839A14207D1AEE0002A80F2AE80E468A14200F0A880636823F003035A1B0F2AF2DDB4493C6901F1080E744500F0A881636823F0E2
:405C800003035A1B0F2A00F38E81002AC1F814E0C1F810E080F29380B3F5007F80F05C81DB084A684FEAA3094FF0010C013351F833800CFA09F901EBC30C49EA0202ACF128
:405CC000080CC4F80CC0C4F808804A6041F83340C8F80C40831001249C4094427CD8144206D120F003006400144200F10400FAD007EBC009CC468046DCF80C108C4507D1BF
:405D000066E1002A80F27481C9688C4500F060814B6823F003035A1B0F2AF2DD0C46CB6854F808CF45F00108C1F804800D4442F00101CCF80C303046C3F808C07D613D6152
:405D4000C5F80CE0C5F808E06960AA5000F0F4FA1FE0102921D800F0EDFA102506230220774F07EB83035C68A3F10802944200F038816368E16823F0030323445A68A5682A
:405D800042F00102E96030468D605A6000F0D4FA0834204603B0BDE8F08F002420460C23336003B0BDE8F08F80214FF0400E3F2048E770465BE723445A68E168DFE723449B
:405DC0005A68304642F001025A60083400F0B4FA204603B0BDE8F08FBC68636823F00308A84504D3C5EB08030F2B00F38C80554BDFF860911A68D9F800302A44013304EB24
:405E0000080A00F0608102F580520F3222F47F6222F00F0211463046019201F077F9B0F1FF3F8346019A00F05881824500F2FC80454BDA4519681144196000F05381D9F8C6
:405E40000000DFF810E101301BBFCAEB0B0A5144CEF800B019601BF0070100F01781C1F10800C1F58051834408315A44C2F30B02C2EB010949463046019301F047F9431CE5
:405E8000019B00F03F81CBEB00024A4442F001021968BC424944C7F808B01960CBF80420DFF8A49016D0B8F10F0F40F2FD806268A8F10C0323F0070302F00102E0184FF016
:405EC000050E1A430F2B6260C0F804E0C0F808E000F21C811D4BBC681A68914288BF19601B4B1A689142626888BF196022F003029542A2EB050301D80F2B04DC304600F0A9
:405F00001BFA002445E745F0010243F00103254462603046BD6008346B6000F00DFA204603B0BDE8F08F142B71D9542B00F2A480280B00F16F0E4FEA4E016E3082E600BF88
:405F40006C85FF1FB089FF1FB489FF1FAC89FF1FA889FF1F7889FF1F5A0A042A5ED9142A00F2B38002F15C0149005B3207EB810C57F82110ACF1080C8C45DFF8D88100F0AC
:405F800088804A6822F00302934202D289688C45F7D1D1F80CC07A68C4F80CC0A160CCF80840CC6096E645F0010742F001032544676030464D610D61C5F80CE0C5F808E0A6
:405FC0006B60AA50083400F0B7F9E2E64A6881E608F1010818F0030F0CF1080C7FF48CAE30E0DC68A34208BF02303FF440AEC0E60C460B445A68C96854F8085F42F00102D0
:406000005A603046E9608D6000F096F9C1E603F15C0E03F15B004FEA4E0113E69A0902F1390149003832A1E7BC424A4B3FF400AF9C68626822F003025AE759F80839994590
:4060400040F0828010F0030F00F1FF30F5D17B6823EA04037B6064009C423FF6BDAE002C3FF4BAAE1C4240467FF442AE64001C4200F10400FAD03BE6B3F5AA7F18D8E80BDE
:4060800000F1780E4FEA4E017730DBE54FF48051EBE60121D8F80430921001FA02F21A43C8F80420614677E70123CBF8043025E740F25452934220D8A80C00F17D0E4FEA63
:4060C0004E017C30BEE51032A4E6542A26D81A0B02F16F0149006E3248E7BC68626822F0030205E7CAF30B0000287FF4A8AE4244BB6842F001025A60ECE6FE214FF07F0E1B
:406100007E209FE501224FF00009C1E604F108013046FFF72DFAD9F80010DBE6B2F5AA7F05D8DA0B02F17801490077321EE740F254518A4205D89A0C02F17D0149007C3275
:4061400014E7FE217E2211E77B6884E7E808431C5B0005E66C85FF1F2DE9F04383B005460A9E1446B2B19846104B0F46D3F80090FFF7C4FC43468DE841002246394628461C
:40618000C847431C03D100228A2332602B6003B0BDE8F083054B1F68FFF7B0FC21468DE841000123024A2846B847EAE77C89FF1F74B0000082B049B15AB16BB113780B6012
:4061C0001278101C18BF012002B0704701A9002AF3D1104602B070476FF00100F4E700BF830770B4CDB23DD0531E02B30278AA421ED0421C04E0D3B10478013BAC4217D030
:4062000012F0030F104602F10102F4D1032B11D853B30278AA420BD00344421C02E00178A94205D09342104602F10102F7D1002070BC704704460E0206F47F462E4346EA75
:406240000646226820467240A2F1013121EA020212F0803F04F10404DBD1043B032B2046EFD8D5E71346D1E71846E1E78842F0B50DD98B1898420AD28118002A51D09A1A1F
:4062800013F8014D934201F8014DF9D1F0BD0F2A48D941EA00039B0746D1154600F1100401F1100353F8106C103D44F8106C53F80C6C0F2D44F80C6C53F8086C04F1100405
:4062C00044F8186C53F8046C03F1100344F8146CE8D8A2F1100323F00F0302F00F0E1033BEF1030F1944034421D90E4674461D1F56F8047B043C032C45F8047FF8D8AEF16F
:40630000040424F0030404342344214402F0030262B1013B0A4411F8014B8A4203F8014FF9D1F0BD0346F3E70346F2E7F0BD7246EEE700BF704700BF704700BFC26C70B542
:4063400005460C4652B152F824308BB1196842F82410002218461A61DA6070BD2122042103F00EFFE86402460028ECD1002070BD012101FA04F6721D2846920003F000FF8C
:4063800003460028F2D044608660E2E731B1C36C4A6853F82200086043F82210704700BFF0B50C4605460E6983B001F1140E0027DEF80000013781B202FB0131000C0B0C22
:4063C00002FB003389B201EB0341BE424EF8041B4FEA1343ECDC3BB1A268964207DA04EB8602013653612661204603B0F0BD6168284601310193FFF7A1FF0746226904F188
:406400000C01023292000C30FBF740F9EA6C6168019B52F82100206042F821403C46DEE72DE9F843234C1F46083384FB034EDB17C3EB6E0EBEF1010F06460C469046089D76
:4064400035DD012300215B009E4501F10101FADC3046FFF773FF0123B8F1090F4561036121DD04F109094D46444415F8013B0146303B0A223046FFF793FFA542F5D109EB0A
:406480000804083C47450CDDC8EB0707274414F8013B0146303B0A223046FFF781FFA742F5D1BDE8F8830A344FF00908EAE70021CEE700BF398EE338030C1B04B3B9000496
:4064C000102310F07F4F04BF0002083310F0704F04BF0001043310F0404F04BF80000233002807DB420003D4202070470023E8E7581C704718467047036813F0070207D040
:40650000D90720D49A0720D49B0803600220704799B209B91B0C102213F0FF0F04BF1B0A0832190704BF1B090432990704BF9B080232D90704D45B0801D1202070470132EC
:40654000036010467047002070475B0803600120704700BF10B50C460121FFF7EFFE01224461026110BD00BF2DE9F04F0D69166985B0B5420C46914604DA2A464C463546AA
:4065800089461646A36805EB060861689845C8BF0131FFF7D3FE00F1140A0AEB880BDA45019005D25346002143F8041B9B45FBD809F1140909EB860304F11402994502EB32
:4065C000850C59D2CDF808B0CDF80C809B46904659F8047B1FFA87FEBEF1000F1FD047465646002100E00646304657F8045B3468ABB2A2B20EFB03222D0C240C0EFB05446F
:40660000531804EB13419AB242EA0142BC454FEA114140F8042BE6D8716059F8047C3F0C22D0DAF80030002255461E464046964600E025462C460288360C07FB026699B29E
:4066400006EB0E0241EA024344F8043B50F8041B6E68090CB3B207FB0131844501EB12434FEA134EE5D86B60CB450AF1040AAFD8DDF808B0DDF80C80B8F1000F0BDD5BF896
:40668000043CABF1040B1BB105E05BF8043D13B9B8F10108F9D10198C0F8108005B0BDE8F08F00BF12F003032DE9F041144607462ED10E46A4101CD0BD6C95B3E3074FF066
:4066C000000806D4641014D02868A8B10546E307F8D52A4631463846FFF746FFB6B17268FB6C641053F82210316043F822600646EAD13046BDE8F0812A4629463846FFF708
:4067000033FF2860C0F800800546E0E70646D9E70B4A013B52F823200023FFF741FE0646C8E701213846FFF709FE40F2712101220023416102610546B8640360BEE700BFFE
:40674000E8B200002DE9F84F0B69541104EB03088B6808F101059D420E4691468346496804DD5B009D4201F10101FADC5846FFF7E5FD002C00F1140237DD02EB84030021A2
:4067800042F8041B9342FBD1346906F1140119F01F0901EB840E20D0C9F1200C00240F681A4607FA09FA4AEA040443F8044B51F8044B8E4524FA0CF4F1D854600CB108F130
:4067C0000205DBF84C307268013D53F822100561316043F82260BDE8F88F043B51F8042B8E4543F8042FF9D8EBE71346CCE700BF02690B69D21A12D19B0014301431194439
:4068000010B4034401E098420BD253F8044D51F8042D9442F7D007D3012010BC704710467047002010BC70474FF0FF30F5E700BF2DE9F0470B690C46116990465B1A002BC8
:4068400018D1890004F1140602F114077318394401E09E4269D253F8045D51F8042D9542F7D06BD22346B24644463E4698464FF0010906E066DB04F1140602F1140A4FF068
:4068800000096168FFF75AFD5546D4F810E0D8F810303746C0F80C900AEB830C06EB8E0600F114044FF0000957F8042B55F8041B1FFA82F808EB09031FFA81F8090CC8EB51
:4068C0000303C1EB124202EB23429BB243EA0243AC4544F8043B4FEA2249E5D8BE4218D9A046BC465CF8042B95B205EB09010B1403EB12428BB243EA0243664548F8043BDD
:406900004FEA2249EED8FF43374427F0030704373C44043C2BB954F8043D0EF1FF3E002BF9D0C0F810E0BDE8F0870021FFF706FD0122002302614361BDE8F087BA464FF0ED
:4069400000099EE7234604F1140A08F1140644464FF00109984694E70F4B0B40A3F15073002B02DD0020194670475B421B15132B0BDD143B1E2BDDBFC3F11F03012202FA76
:4069800003F301230021184670474FF40022002042FA03F1704700BF0000F07F2DE9F041076900F1140606EB870757F8048C4046FFF782FDC0F120030A280B60A7F10403C2
:4069C0001ADC9E4238BF57F8083CC0F10B0228FA02F138BF23FA02F200F1150341F07F5528BF002208FA03F345F4401543EA020420462946BDE8F0819E4220D2B0F10B0221
:406A000057F8081C1ED008FA02F040F07F50C2F1200EA7F1080340F4401021FA0EFC9E4240EA0C0520D257F80C3C01FA02F023FA0EF20243144620462946BDE8F0810B385A
:406A400009D101460C4648F07F5545F4401520462946BDE8F08108FA00F040F07F55002245F440151446E6E701FA02F21446E2E7F0B5012183B01C46C3F30A551646FFF77C
:406A80005DFCC4F3130407460DB144F48014019406B302A840F8086DFFF72EFD002830D19DE80C007A61002B0CBF01210221BB613961D5B9089A07EB8103A0F23240106072
:406AC0001869FFF7F9FC099BC0EB41101860384603B0F0BD01A8FFF70FFD019B0122114620303A617B61002DE4D0A5F23343089A03441360099BC0F135001860384603B02F
:406B0000F0BD019BC0F12001009A03FA01F10A43C34001937A61C6E72DE9F04383B00E4669460746FFF73AFF04460D46304601A9FFF734FF3A69366989469DE80A00961B13
:406B4000C91A01EB4613002B80460BDD05EB03510D4642464B4620462946FAF76BFA03B0BDE8F083A9EB0357B946F2E770B4146902F1140301394E1103EB84040136A342D2
:406B800000EB86060CD2011F53F8045B9C4241F8045FF9D8A31A153B23F0030304331844864204D9002340F8043B8642FBD870BC704700BF03694A11934210B400F11404CD
:406BC0000FDA04EB83039C421FD253F8040C043B18B114E053F8042D8AB99C42FAD310BC70470FDD11F01F010CD054F8220004EB820320FA01F202FA01F18842E3D00120C0
:406C000010BC704704EB8203DDE70020E7E700BF2DE9F04F174683B0002900F08F800D46814607F10B04FFF785FB55F804EC162C2EF00306A5F108083CD810221446A74273
:406C40003DD8964242DAC64B08EB060099688842416800F0D78021F0010303445B68DB074CD51EF0010F00F09D8039464846FEF7C7FF074600283AD055F8043CA0F108028A
:406C800023F0010343449A4200F03E81321F242A00F22B81132A00F2FF8003462A46116819605168596092689A6029464846FEF75FFC1CE024F00704002C2246BFDA0C23EB
:406CC0000020C9F8003003B0BDE8F08F2F46331B0F2BD8F804201DD802F00102324308EB0601C8F804204B6843F001034B604846FFF722FB384603B0BDE8F08F21F00301DE
:406D00003144914220DBC36882682F46D3600E469A60DCE702F0010208EB0401144343F00102C8F804400B444A605A68083142F001025A604846FEF71BFCD8E7114603B07E
:406D4000BDE8F04FFEF75CBF1EF0010F8DD155F8083CC3EB080ADAF8043023F0030C01EB0C0E964526DB5746C3688168321FCB60996057F8081FDAF80C30242ACB6099602C
:406D800000F2C980132A40F292802B681B2ACAF808306B68CAF80C3000F2CD8008350AF1100385E055F8083CC3EB080ADAF8043023F0030C06EB0C039342FFF656AF5746A0
:406DC000DAF80C1057F8080F321F242AC160886000F2AA80132A40F2A58029681B2ACAF808106968CAF80C1000F2BC8008350AF1100229681E4611606968D0465160AB68FF
:406E0000936064E721F0030B04F11000B344834557DA1EF0010F7FF428AF55F8081CC1EB080ADAF8041021F0030CE3445845C1DC5746DAF80C1057F8080F321F242AC16051
:406E4000886000F2B180132A40F2A28029681B2ACAF808106968CAF80C1000F2AC8008350AF110022968116069685160A9689160C4EB0B020AEB040142F0010299604A609B
:406E8000DAF80430484603F001031C43CAF80440FFF752FA38462EE72B681B2A03606B68436026D800F1080305F10802F7E63B462A6876461A606A68D0465A60AA689A608E
:406EC00005E7C4EB0B0B08EB04014BF0010299604A6055F8043C484603F001031C4345F8044CFFF729FA284605E72946FFF7BEF9DBE6AB68242A8360EB68C36027D000F118
:406F0000100305F11002CAE650F8043C2F4623F003031E44DBE6294638467646D046FFF7A5F9D4E63A4664E7294638461E46D046FFF79CF9CBE6AB68242ACAF81030EB681C
:406F4000CAF814301AD010350AF11803B0E72A6900F118030261696905F1180241619EE66C85FF1FA968242ACAF81010E968CAF814100FD010350AF118023AE72A690AF1B6
:406F80002003CAF818206A691835CAF81C208FE73A4667E729690AF12002CAF8181069691835CAF81C1024E7294638460193FFF75DF9019B5CE7A968242ACAF81010E96863
:406FC000CAF8141003D010350AF118024AE729690AF12002CAF8181069691835CAF81C1040E700BF838903F00903092B01D000207047FEF7F1B800BFF8B50C46054610B172
:40700000836B002B47D0B4F90C309AB2970407D4626E43F4005322F400526266A3819AB200219606616033D4500722D5216B61B104F14003994202D02846FEF799FAE36BE1
:40704000002063602063002B3FD12369002B4CD0B4F90C70BEB2B30720D1226928462260256A6369E169A8470028606009DD0020F8BDD1063ED512072AD443F00403A38147
:40708000E3E7A3891BD0002243F04003A38162604FF0FF30F8BDFEF72FF9B4E7194A01231068A381184906F00906FEF7CDFC092EA781D2D121462846FDF7D4FFCDE743F0CA
:4070C00020034FF0FF30A381F8BDA36B2360F8BD21462846FEF76AF80028D9D1B4F90C30A060A06123F00803C7E721462846FEF743FDADE743F0400309222A604FF0FF30F5
:40710000A381F8BD3CB00000E56F000038B5074C0023054608462360F9F7FAF9431C00D038BD2368002BFBD02B6038BDE889FF1F70B40D785E2D2FD0002216460131431EDC
:4071400000F1FF0403F8012FA342FBD185B186F0010242554C1C14F8013C2D2B0ED05D2B09D013B11D462146F3E7084670BC7047481E70BC7047204670BC70474E785D2E35
:40718000F0D0B542EEDC023143190135AE4203F8012FFADC0234DEE701224D7816460231CDE700BF004870470000C07F0EB40146F0B54FF6FF779CB021AC54F8042B0D4823
:4071C00023466FF00045029106914FF4027602A900680194ADF81670ADF814600495079501F0C4FA029B00221A701CB0BDE8F04003B070470885FF1F10B50C46B1F90E10EF
:4072000003F08CFC002803DB236D0344236510BDA38923F48053A38110BD00BF2DE9F0410C46B1F90C101F46CB051646054607D5B4F90E100223002203F05AFCB4F90C10A0
