:400000000080002011000000F5080000F508000008B5044B1A6803F53F5302331A6000F071FC00BFFA46004010B5054C237833B9044B13B10448AFF300800123237010BD10
:400040001885FF1F00000000A4190000084B10B51BB108490848AFF300800848036803B910BD074B002BFBD0BDE81040184700BF000000001C85FF1FA4190000C880FF1FE0
:40008000000000002DE9F04F87B062B600F0ACFD914800F06DFD00F04FFA012000F042FD00F042F90028FBD000F06EF94FF00009CDF80090DFF838A2CDF804A04FF4FA7767
:4000C0004FF0FF364FF0FF0B5D465C464FF0000804A800F041FA02A800F046FABDF80A20BDF808301344BDF80C201344BDF80E20D31815D19E4201D008F10108B8F1010F8B
:4001000002D0B8F1030F0BD100F042F900F00CF90028FBD000F038F96421DC2000F03CF9BDF80A10BDF808600E44BDF80C20B318BDF80E601E440A44022A27D14946009C70
:40014000204601F097FA80B16449204600F0CEFF01F09AFA04466149484600F0C5FF01F093FA05464FF0010A42E05C49009800F0BBFF01F089FA04465849484600F0B6FF2D
:4001800001F082FA05464FF0010A31E0BDF81200C0F5BB40403001F05DF80146504600F0A3FF4F4901F048FAA8B1BDF81400C0F5BB40403001F04EF80146019800F094FFE9
:4001C000474901F039FA68B94FF0000A4FF4FA774FF07D0B0CE04FF0000A4FF4FA774FF07D0B05E04FF0000A40F245174FF0FF0BBDF8120001F02EF801463A4800F074FFA7
:40020000394901F02FF98146BDF8140001F022F80146344800F068FF344901F023F90090BAF1000F25D1584601F014F80546384601F010F882460146009801F05FF8014611
:40024000284600F051FF0146484600F04FFF01F01BFA04465146484601F050F80146284600F042FF0146009800F040FF01F00CFA0546FE2C03DC14F1FE0F02DB03E0FF24DB
:4002800001E06FF0FE04FE2D03DC15F1FF0F02DB03E0FF2501E06FF0FE0501222946204600F08EF8BDF8120045F6C059C0EB090000F0D0FF8246BDF81400C0EB090000F086
:4002C000C9FF0190204600F0C5FF0090284600F0C1FF8146FCE600BF310400000000F0420000FA430080BB4600EC9046005091460024F44808B500F085FC0128FBD008BD20
:4003000010B5002400E0013400F07CFC0028FAD0204610BD10B5002400E0013400F072FC0128FAD0204610BD30B58BB02122002101A801F073FAFFF7DDFF002412E0FFF747
:40034000DFFF0546FFF7E6FF854205D201220AAB234403F8242C04E000220AAB234403F8242C0134202CEAD90023184608E0591C0AAA0A4412F8242C02FA03F318430B46C8
:400380001F2BF4D90BB030BD08B500F085FB08BD08B500F019FB08BD38B504460D46002000F0A8FB002000F0B1FB204600F020FB204600F023FB284600F07CFB38BD00BF9F
:4003C00070B50C461646051E08DB002906DB002000F090FB002000F099FB1FE0002D09DB002C07DA002000F085FB012000F08EFB644213E0002D09DA002C07DB012000F0CC
:4004000079FB002000F082FB6D4207E0012000F071FB012000F07AFB64426D42E8B200F0E7FAE0B200F0EAFA304600F043FB70BDF8B500F021FD044600F0A4FC074600F059
:4004400027FC064600F0C2FD054614F0400F09D000F018FD044600F021FD201A80B2354B988003E000F00EFD324B988017F0400F09D000F08DFC044600F096FC201A80B233
:400480002C4BD88003E000F083FC2A4BD88016F0400F09D000F002FC044600F00BFC201A80B2244B188003E000F0F8FB214B188015F0400F09D000F08FFD044600F098FD3C
:4004C000201A80B21B4B588003E000F085FD194B58800C2000F03CFD012000F02DFD0C2000F04EFD012000F03FFD0C2000F0AAFB012000F09BFB0C2000F0D4FD012000F017
:40050000C5FD0A2000F0ECFA022000F021FD022000F036FD022000F095FB022000F0C2FD00F0AAFC00F02EFC00F0B2FB00F04EFDF8BD00BF3485FF1F08B5064800F018FB30
:4005400000F0ECFC00F070FC00F0F4FB00F090FD08BD00BF310400000246024B03CB1060516070473485FF1F184B1B889BB2184A1288934202D90023038001E001230380F3
:40058000124B5B889BB2124A5288934202D90023438001E0012343800C4B9B889BB20C4A9288934202D90023838001E001238380064BDB889BB2064AD288934202D9002387
:4005C000C38070470123C380704700BF3485FF1FCC80FF1FFEE700BFF0B40022174611E050F82760F3B226F0FF0608E001EB420511F812406D78A5550132013BDBB2002B20
:40060000F4D10137232FEBD9F0BC704708B50A46002101F003F908BDF8B5184B1B78DBB2174E3478E4B2174F3D78EDB203F00701154A11701B090132137044F00303337041
:4006400045F003033B708022104B1A704023104A137002321370082302F21D2213702021033211702D3213700A2000F039FA3D7034704422074B1A70F8BD00BFCF010049EF
:40068000F8460040F94600406E5800402D510040095900407658004008B501F049F808BD38B51925364B1D801823364A13701D210232118002321370772102321180023243
:4006C0001370EF21023211800232137040F2AF41023211800232137004222B492B48FFF7DBFF02222A4B1A7008224FF040231A70032103F500731970264B1B78DBB22649DF
:400700000B70264B1A8041F25122023B1A8000240CE0234B1B7803F0010343EA440404F003044FF4F07000F0CBFC013D0DB1032CEFD115B90320FFF74DFF1A4B4FF480722C
:400740001A8007221A70002217490A704820023108701A700222033B1A7004220A331A70124A137843F01F031370013A137843F001031370013A137843F08003137038BD87
:40078000804000408240004088080048004100400043004008010049A146004022420040254200400440004006400040A243004038B572B63A4A137843F004031370002463
:4007C0000CE0384D630019194A0011462A44084691882858FFF71AFF0134E4B2072CF0D900240BE02F49A3001819420088180622416B006BFFF750FF0134E4B2002CF1D0AE
:4008000029494FF09040FFF7E7FE284A137843F0020313701032137843F002031370244C237843F040032370A2F58632513A137843F01003137008221E491F48FFF72CFFC1
:400840000A221E491E48FFF727FF08221D491E48FFF722FF08221D491D48FFF71DFF0A221C491D48FFF718FF08221C491C48FFF713FF1C4A137843F0080313701A4D6123B4
:400880002B70FFF70DFF81232B700122174B1A70FFF7C2FE0E2221461548FFF7FDFE38BDE8460040A81900009000004803500140A043004050080048025100405808004824
:4008C000C051004064080048F25100406C0800481251004074080048205100408008004832510040224300400048004004000840B043004008B500F0EDFE03680C2B00D152
:40090000FEE7FEE708B5104E104D16E029686B68AC68002204E051F8040B43F8040B0432A242F8D1E868002203E0002143F8041B04328242F9D11035013E002EE6D100F08F
:40094000CFFEFFF79FFBFEE701000000141A000008B5104A104B1A60104A136843F40073136000230AE0032B03D80D4A52F8231000E00C490C4A42F8231001332F2BF2D9ED
:400980000A4B1A780A4B1A70074A0A4B1A60FFF70FFF08BD0004FA050CED00E014ED00E000000000F50800000080FF1FBC760040C080FF1F08ED00E0024A137843F08003FE
:4009C0001370704779640040024A137803F07F031370704779640040014B1870704700BF0D640040014B1870704700BF4D640040014B1870704700BF2D640040014B1870D8
:400A0000704700BF3D640040014B1870704700BF8D640040014B1878704700BF6D640040014B1878704700BF5D64004008B501E0FFF7F6FFFFF7EEFF10F0100FF8D108BD15
:400A400010B5134A137803F0C00343F009031370104C237843F001032370FF20FFF7BCFFFF20FFF7BFFF2820FFF7C2FF2820FFF7C5FF0020FFF7C8FF00F02AFB237843F02C
:400A80001003237000F028FBFFF7D0FF10BD00BF796400409D64004008B5054B1B7823B9FFF7CEFF0122024B1A70FFF785FF08BD4485FF1F10B5044605E0084B186800F0B8
:400AC000FFFAA4F50044B4F5004FF6D8034B586800FB04F000F0F4FA10BD00BFD480FF1F08B5034B1B7A00FB03F000F0E9FA08BDD480FF1F044A137803F07F03C001C0B268
:400B000018431070704700BF30510040044A137803F0FE0300F0010018431070704700BFF0510040044A137803F0DF03400100F0200018431070704720510040014B1B6802
:400B40005864704708ED00E04001C0B2014B1870704700BF01E400E00222014B1A60704700E100E00222014B1A60704780E100E010B50446FFF7F6FF2046FFF7DFFF0720CC
:400B8000FFF7E2FFFFF7E8FF10BD00BF7222074B1A702022FF3B1A7006229E331A70472210331A70002250331A7070478965004010B500F08DFA04460A4A137843F02003F7
:400BC0001370FF3A137843F010031370FE32137843F01003137000F01BF8204600F07CFA10BD00BF9965004008B5054B1B7823B9FFF7CCFF0122024B1A70FFF7D9FF08BDFE
:400C00004585FF1F014B1878C009704711510040054A137843F0010313701032137843F001031370704700BFA2430040044A137803F0DF03400100F0200018431070704787
:400C4000F0510040044A137803F0F10300F00E0018431070704700BF7D500040084A137843F0020313701032137843F00203137002F65932137843F001031370704700BF79
:400C8000A3430040014B1870704700BF0F4F0040014B1878704700BF0F4F0040014B188880B27047104F0040014B1880704700BF104F0040014B188880B27047144F004051
:400CC000014B1880704700BF124F004008B5164A137803F0010313700232137803F0FC031370124B1A7802F0CF021A701A7842F030021A701A7802F0F0021A701A7842F023
:400D00000F021A700A4A137843F00103137045F6BF50FFF7C9FF45F6BF50FFF7D1FF0820FFF7B0FF08BD00BF0C4F0040174F00400D4F004008B5054B1B7823B9FFF7C6FF02
:400D40000122024B1A70FFF789FF08BD4785FF1F084A137843F0080313701032137843F00803137002F67132137843F001031370704700BFA3430040014B1870704700BF5A
:400D8000274F0040014B1878704700BF274F0040014B188880B27047284F0040014B1880704700BF284F0040014B188880B270472C4F0040014B1880704700BF2A4F004035
:400DC00008B5164A137803F0010313700232137803F0FC031370124B1A7802F0CF021A701A7842F030021A701A7802F0F0021A701A7842F00F021A700A4A137843F001036C
:400E0000137045F6BF50FFF7C9FF45F6BF50FFF7D1FF0820FFF7B0FF08BD00BF244F00402F4F0040254F004008B5054B1B7823B9FFF7C6FF0122024B1A70FFF789FF08BD2D
:400E40004885FF1F084A137843F0040313701032137843F00403137002F66532137843F001031370704700BFA3430040014B1870704700BF1B4F0040014B1878704700BFAD
:400E80001B4F0040014B188880B270471C4F0040014B1880704700BF1C4F0040014B188880B27047204F0040014B1880704700BF1E4F004008B5164A137803F00103137056
:400EC0000232137803F0FC031370124B1A7802F0CF021A701A7842F030021A701A7802F0F0021A701A7842F00F021A700A4A137843F00103137045F6BF50FFF7C9FF45F6C7
:400F0000BF50FFF7D1FF0820FFF7B0FF08BD00BF184F0040234F0040194F004008B5054B1B7823B9FFF7C6FF0122024B1A70FFF789FF08BD4985FF1F044A137803F0EF036C
:400F4000000100F01000184310707047C0510040044A137803F0F10300F00E0018431070704700BF64500040044A137803F0EF03000100F01000184310707047F0510040B8
:400F8000044A137803F0F10300F00E0018431070704700BF7C500040084A137843F0010313701032137843F00103137002F64D32137843F001031370704700BFA3430040A0
:400FC000014B1870704700BF034F0040014B1878704700BF034F0040014B188880B27047044F0040014B1880704700BF044F0040014B188880B27047084F0040014B18808C
:40100000704700BF064F004008B5164A137803F0010313700232137803F0FC031370124B1A7802F0CF021A701A7842F030021A701A7802F0F0021A701A7842F00F021A7034
:401040000A4A137843F00103137045F6BF50FFF7C9FF45F6BF50FFF7D1FF0820FFF7B0FF08BD00BF004F00400B4F0040014F004008B5054B1B7823B9FFF7C6FF0122024B0E
:401080001A70FFF789FF08BD4A85FF1F044A137803F0EF03000100F0100018431070704730510040044A137803F0F10300F00E0018431070704700BF1C50004000000000A9
:4010C0000230800803D000BF01380046FCD17047EFF3108072B6704780F31088704700BF80F0004002E000BF81F0004142001FBF5FEA410392EA030F7FEA226C7FEA236CA2
:401100006AD04FEA1262D2EB1363C1BFD218414048404140B8BF5B42192B88BF704710F0004F40F4000020F07F4018BF404211F0004F41F4000121F07F4118BF494292EA6B
:40114000030F3FD0A2F1010241FA03FC10EB0C00C3F1200301FA03F100F0004302D5494260EB4000B0F5000F13D3B0F1807F06D340084FEA310102F10102FE2A51D2B1F1E8
:40118000004F40EBC25008BF20F0010040EA03007047490040EB000010F4000FA2F10102EDD1B0FA80FCACF1080CB2EB0C0200FA0CF0AABF00EBC25052421843BCBFD040B4
:4011C0001843704792F0000F81F4000106BF80F400000132013BB5E74FEA41037FEA226C18BF7FEA236C21D092EA030F04D092F0000F08BF0846704790EA010F1CBF00201A
:40120000704712F07F4F04D1400028BF40F00040704712F100723CBF00F50000704700F0004343F0FE4040F4000070477FEA226216BF08467FEA23630146420206BF5FEAC1
:40124000412390EA010F40F4800070474FF0000304E000BF10F0004348BF40425FEA000C08BF704743F0964301464FF000001CE050EA010208BF70474FF000030AE000BF5D
:4012800050EA010208BF704711F0004302D5404261EB41015FEA010C02BF84460146002043F0B64308BFA3F18053A3F50003BCFA8CF2083AA3EBC25310DB01FA02FC634467
:4012C00000FA02FCC2F12002BCF1004F20FA02F243EB020008BF20F00100704702F1200201FA02FCC2F1200250EA4C0021FA02F243EB020008BF20EADC7070474FF0FF0C92
:401300001CEAD0521EBF1CEAD15392EA0C0F93EA0C0F6FD01A4480EA010C400218BF5FEA41211ED04FF0006343EA501043EA5111A0FB01310CF00040B1F5000F3EBF4900C7
:4013400041EAD3715B0040EA010062F17F02FD2A1DD8B3F1004F40EBC25008BF20F00100704790F0000F0CF0004C08BF49024CEA502040EA51207F3AC2BFD2F1FF0340EA76
:40138000C250704740F400004FF00003013A5DDC12F1190FDCBF00F000407047C2F10002410021FA02F1C2F1200200FA02FC5FEA310040F1000053EA4C0308BF20EADC70A8
:4013C000704792F0000F00F0004C02BF400010F4000F013AF9D040EA0C0093F0000F01F0004C02BF490011F4000F013BF9D041EA0C018FE70CEAD15392EA0C0F18BF93EA76
:401400000C0F0AD030F0004C18BF31F0004CD8D180EA010000F00040704790F0000F17BF90F0004F084691F0000F91F0004F14D092EA0C0F01D142020FD193EA0C0F03D14D
:401440004B0218BF084608D180EA010000F0004040F0FE4040F40000704740F0FE4040F4400070474FF0FF0C1CEAD0521EBF1CEAD15392EA0C0F93EA0C0F69D0A2EB030221
:4014800080EA010C49024FEA402037D04FF0805343EA111143EA10130CF000408B4238BF5B0042F17D024FF4000C8B4224BF5B1A40EA0C00B3EB510F24BFA3EB510340EA75
:4014C0005C00B3EB910F24BFA3EB910340EA9C00B3EBD10F24BFA3EBD10340EADC001B0118BF5FEA1C1CE0D1FD2A3FF650AF8B4240EBC25008BF20F0010070470CF0004C5D
:401500004CEA50207F32C2BFD2F1FF0340EAC250704740F400004FF00003013A37E792F0000F00F0004C02BF400010F4000F013AF9D040EA0C0093F0000F01F0004C02BFA1
:40154000490011F4000F013BF9D041EA0C0195E70CEAD15392EA0C0F08D142027FF47DAF93EA0C0F7FF470AF084676E793EA0C0F04D14B023FF44CAF08466EE730F0004C1C
:4015800018BF31F0004CCAD130F000427FF45CAF31F000437FF43CAF5FE700BF4FF0FF3C06E000BF4FF0010C02E000BF4FF0010C4DF804CD4FEA40024FEA41037FEA226C48
:4015C00018BF7FEA236C11D001B052EA530C18BF90EA010F58BFB2EB030088BFC81738BF6FEAE17018BF40F0010070477FEA226C02D15FEA402C05D17FEA236CE4D15FEA06
:40160000412CE1D05DF8040B704700BF844608466146FFE70FB5FFF7C9FF002848BF10F1000F0FBD4DF808EDFFF7F4FF0CBF012000205DF808FB00BF4DF808EDFFF7EAFF21
:4016400034BF012000205DF808FB00BF4DF808EDFFF7E0FF94BF012000205DF808FB00BF4DF808EDFFF7D2FF94BF012000205DF808FB00BF4DF808EDFFF7C8FF34BF0120AE
:4016800000205DF808FB00BF4FEA4002B2F1FE4F0FD34FF09E03B3EB12620DD94FEA002343F0004310F0004F23FA02F018BF404270474FF00000704712F1610F01D142020F
:4016C00005D110F0004008BF6FF0004070474FF000007047014B1868704700BF1085FF1F70B50F4E0F4D761BB61018BF002405D0013455F8043B9847A642F9D10A4E0B4DC5
:4017000000F074F9761BB61018BF002406D0013455F8043B9847A642F9D170BD70BD00BFF8190000F8190000041A0000F8190000844641EA000313F0030349D1403A23D3DD
:401740000B6803604B6843608B688360CB68C3600B6903614B6943618B698361CB69C3610B6A03624B6A43628B6A8362CB6AC3620B6B03634B6B43638B6B8363CB6BC363D9
:4017800040304031403ADBD230320BD30B6803604B6843608B688360CB68C36010301031103AF3D20C3205D351F8043B40F8043B043AF9D2043208D0D2071CBF11F8013BD4
:4017C00000F8013B01D30B8803806046704700BF082A13D38B07B1D010F00303AED0C3F10403D21ADB071CBF11F8013B00F8013BA4D331F8023B20F8023B9FE7043AD9D381
:40180000013A11F8013B00F8013BF9D20B7803704B7843708B7883706046704770B4840746D0541E002A41D0CDB2034602E0621EE4B3144603F8015B9A07F8D1032C2ED9E6
:40184000CDB245EA05250F2C45EA054519D9264603F11002103E0F2E42F8105C42F80C5C42F8085C42F8045C02F11002F2D8A4F1100222F00F0204F00F041032032C134405
:401880000DD91E462246043A032A46F8045BFAD8221F22F003020432134404F003042CB1C9B21C4403F8011BA342FBD170BC704714460346C2E700BF024B13B1024800F003
:4018C00005B8704700000000D9180000002301461A46184600F014B838B5074D074C2C1BA41005D0013C55F8043D9847002CF9D1BDE8384000F086B8141A0000101A0000F8
:401900002DE9F047254C064625688846D5F8484192469946C4B360681F2817DC411C76B104EB8003C3F888A0D4F88851012282401543022EC4F88851C3F808911ED0831C5B
:401940006160002044F82380BDE8F087144B03B34FF4C870AFF300800446D0B1D5F84831002784E888003846C5F848410121C4F88871C4F88C71002EE1D0D1E7D4F88C3139
:401980001A43C4F88C21DAE705F5A674C5F84841C1E74FF0FF30BDE8F08700BFE81900000000000000000000C84900401900004F00403000405100403000000001400010D9
:4019C00000140140000800400140000A004C0140000200500140200060520040480800480600000043000000E880FF1FF8B500BFF8BC08BC9E467047B91800004D000000C9
:401A000051090000F8B500BFF8BC08BC9E46704729000000281A0000C880FF1F5004000038000000000000000000000010271027102710270000E02EC05D00001800000051
:401A400000366E010000000000000000D483FF1F3C84FF1FA484FF1F000000000000000000000000000000000000000000000000000000000000000000000000E41900002B
:401A80000000000000000000000000000000000000000000000000000000000000000000000000000000000000000000000000000000000000000000000000000000000026
:401AC00000000000000000000000000000000000000000000000000000000000000000000000000000000000000000000000000001000000000000000E33CDAB34126DE693
:401B0000ECDE05000B0000000000000000000000000000000000000000000000000000000000000000000000000000000000000000000000000000000000000000000000CB
:401B40000000000000000000000000000000000000000000000000000000000000000000000000000000000000000000000000000000000000000000000000000000000065
:401B80000000000000000000000000000000000000000000000000000000000000000000000000000000000000000000000000000000000000000000000000000000000025
:401BC00000000000000000000000000000000000000000000000000000000000000000000000000000000000000000000000000000000000000000000000000000000000E5
:401C000000000000000000000000000000000000000000000000000000000000000000000000000000000000000000000000000000000000000000000000000000000000A4
:401C40000000000000000000000000000000000000000000000000000000000000000000000000000000000000000000000000000000000000000000000000000000000064
:401C80000000000000000000000000000000000000000000000000000000000000000000000000000000000000000000000000000000000000000000000000000000000024
:401CC00000000000000000000000000000000000000000000000000000000000000000000000000000000000000000000000000000000000000000000000000000000000E4
:401D000000000000000000000000000000000000000000000000000000000000000000000000000000000000000000000000000000000000000000000000000000000000A3
:401D40000000000000000000000000000000000000000000000000000000000000000000000000000000000000000000000000000000000000000000000000000000000063
:401D80000000000000000000000000000000000000000000000000000000000000000000000000000000000000000000000000000000000000000000000000000000000023
:401DC00000000000000000000000000000000000000000000000000000000000000000000000000000000000000000000000000000000000000000000000000000000000E3
:401E000000000000000000000000000000000000000000000000000000000000000000000000000000000000000000000000000000000000000000000000000000000000A2
:401E4000000000000000000000000000000000000000000000000000000000000000000000000000000000000000000000000000E880FF1F000000000000000000000000DC
:401E80000000000000000000000000000000000000000000000000000000000000000000000000000000000000000000000000000000000000000000000000000000000022
:401EC00000000000000000000000000000000000000000000000000000000000000000000000000000000000000000000000000000000000000000000000000000000000E2
:401F000000000000000000000000000000000000000000000000000000000000000000000000000000000000000000000000000000000000000000000000000000000000A1
:401F40000000000000000000000000000000000000000000000000000000000000000000000000000000000000000000000000000000000000000000000000000000000061
:020000040003F7
:0200000480007A
:40000000084F00400452004003640040036500400101014001030140050501400207014056080140450901405E0A0140490B01405D0C0140330D0140040E0140020F0140EB
:40004000051501400417014054180140521901405B1A0140491B01400640014006410140194201400C43014002440140054501400746014003470140114801401A49014071
:40008000124C01400D4D0140075001400251014001800A4B0D8016631980229325802E3918201910780279028A388B0F8D0F880F89728B0FE204E004E208E408E604E810A8
:4000C000EA02E840EA0803010701120116041A061D02260A3002310232083301340136043F014020410645104620480A49FF4AFF4BFF4DA04F0450185283580459045A04AD
:400100005B045C235D425F01604062C06440654066C068C06AC06CC06EC0810484208518880C8A038B238D3C8E038F029127920C93189420953F99089A109D1C9E109F218A
:40014000A140A208A401A60EA801AA06AB04AC20AD10B010B11FB220B338B40FB540BA20BB02BE01BF10D280D804D904DB04DD30DF01012403020A680B020D060E081082A5
:4001800012281610182819201A041B091C481D041E0920842204235026022720288029402B042C082F04302031083281364038223B483D013E08452046084D014F2057103B
:4001C0006E106F017102774091089305960297409A109B089D459E049F44A128A281A46CA709AA20AF10B602C007C27FC42FCA0DCC1FCECFD020D220E840EE01040109073E
:400200000D060F0111011306150619021D061F0120022A022B012D043002360137073B883E414013420449FF4AFF4BFF4F0150185418580459045A045B045D015F016040F7
:40024000624064406540668068806A806C806E80850189028B048C068E0191099504960697029A049B099E029F06A101B106B201B301B406B604B708BAA0BF41C013C2046B
:40028000C5ECC620C80BC9FFCAFFCBFFCD83CE03CF01D018D403D604D804D904DA04DB04DC11DD11DF01E040E240E440E540E680E880EA80EC80EE80022007020E25112092
:4002C000130218021A401E2520102108228025012601272129402B082E01302832813610374638103B403E144180422043014580462047014D065510562059015D065E4091
:400300005F206004630267808001830287448E10900491089315960297089A109B089D049E069F42A1A0A444A509A680AF20B004B302B601C084C2E0C40ACA8CCCFFCE6CA5
:40034000D0DBD6F1D88CE601E8100C020F04130215011B011F04220123022B022F02330234013504360237013E403F144015420445EC4602480749FF4AFF4BFF4F015018BD
:400380005280580459045A045B045C325D245F016040624064406540668068806A806C806E80860489048A028E019101940197039C01A201A604AA02B004B102B201B3040F
:4003C000B402B501B808BE11BF04C060C102C5D2C610C705C81BC9FFCAFFCBFFCDA0CF04D018D407D804D904DA04DB04DC30DD33DF01E040E2C0E440E540E6C0E8C0EAC06D
:40040000ECC0EEC000880308070209080A0210201284164018041B0A1DA021022210231027292E422F04302031023208331035043621374039203F80408043114501474014
:40044000482449014F85510452385740588459015A20764082408910C087C205C41ECAB0CCF3CE14D094D214D60FB908BF04D904DF0125048104E008E401E820EA01EE08DC
:40048000E250E602EA0AEE600C011301340135013E104002460449FF4A074BFF4C404D204EF04F0550085401580459045A045B045C405F01604061A862406320801F82609E
:4004C0008463852A87548A638C1C8E639355947F9543971C984299439B349C739E0C9F20A008A404A503A744A80CAC21AE80AF28B060B140B280B30FB410B538B60FBA8074
:40050000BB28BE10BF01C064C102C50CC6BEC80DC9FFCAFFCBFFCEF0CF44D00CD602D711D804D904DA04DB04DF01E6C0EA40EB0200800280032804800702088809080A0AEF
:400540001068114019111A021B041E08200422282340270429042B01308032283302344035403602380840044302471049044A185040531054805540570259105E285F425E
:40058000680269246A20702871408C408E0290489214931594029504966297029B099D419E049F04A040A108A281A308A4AAA668A706AC80AE01AF20B202B404C08FC207DA
:4005C000C40FCA0ACC8FCE02D025D204D6F4E250E602EE6201480334042C05F8061109F80C401009121014141590172C19201BC21E032101241C262228302A0C2C10306093
:400600003101331835E0361F370638023F41404341024206440147CE483049FF4AFF4BFF4C624DA04EF04F41500C580459045A045F016640670269106A306B106D106E104D
:400640006F12851089018B028C058D048EEA90039103929C94039518963C99189D039EFFA055A101A20AA302AF08B0F0B20FB318B6F0B707B908BA82BBC0BF04D403D8043D
:40068000D904DB04DC44DD40DF010220030207020A410B200E921188120817011A411B411EA01F80200121282205268027122B402F823128332036A83701380239243D0812
:4006C0003E143F40408943084A014B50520453015D805E205F05860189808B088C018D40912492149335940295409648970298889B099E049F10A140A229A30AA721B2401C
:40070000C085C2BDC417CA91CCF6CE77D00FD204D6F0E008E403E820EA01EE083002332037208308CC70E22081019B089F20A402A720E0201B841D011E023E105B085D089C
:4007400061208108840287809B089D01A402A601A720AF20B601C6F0CE20D6C0D840E210E410E620EA406B087020771896109B08A720AD20B704DA40DC60DE20EA10130410
:40078000C40802208B049304C008E6040104040882208F01A220C00CE60891049701A8045F20730884048D048F01920196109B28A720AE01AF20B020B710D620DC20E64048
:4007C000EA500B20122016405A01670271047404822086409201930297209904A004AA10AF20B310C210C430D6C0DC80DE20E010E480EA80EE100F011102132014101F80FC
:400800007B107F4084108D018F019701AD04C201C40EC601DE03E208E608128074048310840487408E809780A710AB20AF80C408DE04E202001F0C1F0E1D101111011C1135
:400840001D01003F03C00000828000004300000000808000000004008300409093008300000000000033330002000000800B0B0000000000040001262200000080000000DB
:4008800000F0F000600000000100180100000000000000000000000000000000000000000000000000000000000000000000000000000000000000000000000000000000DE
:4008C00000000000000000000000000000000000000000000000000000000000000000000000000000000000000000000000000000000000000000000000000000000000F8
:4009000000000000000000000000000000000000000000000000000000000000000000000000000000000000000000000000000000000000000000000000000000000000B7
:400940000000000000000000000000000000000000000000000000000000000000000000000000000000000000000000000000000000000000000000000000000000000077
:400980000000000000000000000000000000000000000000000000000000000000000000000000000000000000000000000000000000000000000000000000000000000037
:0200000490006A
:0400000000004005B7
:0200000490105A
:04000000BC90ACAF55
:0200000490303A
:02000000A8F165
:0200000490402A
:4000000000000000000000000000000000000000000000000000000000000000000000000000000000000000000000000000000000000000000000000000000000000000C0
:400040000000000000000000000000000000000000000000000000000000000000000000000000000000000000000000000000000000000000000000000000000000000080
:400080000000000000000000000000000000000000000000000000000000000000000000000000000000000000000000000000000000000000000000000000000000000040
:4000C0000000000000000000000000000000000000000000000000000000000000000000000000000000000000000000000000000000000000000000000000000000000000
:0200000490501A
:0C00000000012E16106900012E22B95AD2
:00000001FF