:400000000080002011000000D9060000D906000008B5044B1A6803F53F5302331A6000F063FB00BFFA46004010B5054C237833B9044B13B10448AFF300800123237010BD5B
:400040001885FF1F0000000088110000084B10B51BB108490848AFF300800848036803B910BD074B002BFBD0BDE81040184700BF000000001C85FF1F88110000C880FF1F28
:400080000000000000B585B062B600F099FC274800F058FC00F052F9012000F02DFC00F061F80028FBD000F08DF802A800F056F9684600F05BF9BDF80430BDF80220D34230
:4000C00007D13221782000F081F8322000F0DCFBEBE7012B0DD162B90121084600F076F832228C21002000F085F8322000F0CCFBDBE773B9012A0CD10121084600F066F8AB
:40010000322200218C2000F075F8322000F0BCFBCBE73221642000F079F864220021962000F068F8642000F0AFFBBEE73502000008B500F053FC0128FBD008BD10B5002419
:4001400000E0013400F04AFC0028FAD0204610BD10B5002400E0013400F040FC0128FAD0204610BD30B58BB02122002101A800F047FFFFF7DDFF002412E0FFF7DFFF054655
:40018000FFF7E6FF854205D201220AAB234403F8242C04E000220AAB234403F8242C0134202CEAD90023184608E0591C0AAA0A4412F8242C02FA03F318430B461F2BF4D99C
:4001C0000BB030BD08B500F051FB08BD38B504460D46002000F078FB002000F081FB204600F0F0FA204600F0F3FA284600F04CFB38BD00BF38B50D46144600F0E3FA28464F
:4002000000F0E6FA204600F03FFB38BD38B504460D46012000F058FB012000F061FB204600F0D0FA204600F0D3FA284600F02CFB38BD00BFF8B500F00BFD044600F08EFC29
:40024000074600F011FC064600F0ACFD054614F0400F09D000F002FD044600F00BFD201A80B2354B988003E000F0F8FC324B988017F0400F09D000F077FC044600F080FCFF
:40028000201A80B22C4BD88003E000F06DFC2A4BD88016F0400F09D000F0ECFB044600F0F5FB201A80B2244B188003E000F0E2FB214B188015F0400F09D000F079FD0446C7
:4002C00000F082FD201A80B21B4B588003E000F06FFD194B58800C2000F026FD012000F017FD0C2000F038FD012000F029FD0C2000F094FB012000F085FB0C2000F0BEFD6B
:40030000012000F0AFFD0A2000F0D4FA022000F00BFD022000F020FD022000F07FFB022000F0ACFD00F094FC00F018FC00F09CFB00F038FDF8BD00BF3485FF1F08B5064802
:4003400000F000FB00F0D6FC00F05AFC00F0DEFB00F07AFD08BD00BF350200000246024B03CB1060516070473485FF1F184B1B889BB2184A1288934202D90023038001E007
:4003800001230380124B5B889BB2124A5288934202D90023438001E0012343800C4B9B889BB20C4A9288934202D90023838001E001238380064BDB889BB2064AD2889342E0
:4003C00002D90023C38070470123C380704700BF3485FF1FCC80FF1FFEE700BFF0B40022174611E050F82760F3B226F0FF0608E001EB420511F812406D78A5550132013BDC
:40040000DBB2002BF4D10137242FEBD9F0BC704708B50A46002100F0F3FD08BD38B50122304B1A801823304A1370192502321580023213701D21023211800232137077214D
:400440000232118002321370EF21023211800232137040F2AF4102321180023213700222224B1A7008224FF040231A70032103F5007319701E4B1B78DBB21E490B701E4B79
:400480001A8041F25122023B1A8000240CE01B4B1B7803F0010343EA440404F003044FF4F07000F0F9FC013D0DB1032CEFD115B90320FFF791FF124B4FF480721A80072276
:4004C0001A7000220F490A704820023108701A700222033B1A700C4A137843F03F03137038BD00BF80400040824000400043004008010049A146004022420040254200401F
:400500000440004006400040A2430040F8B5184B1B78DBB2174E3478E4B2174F3D78EDB203F00701154A11701B090132137044F00303337045F003033B708022104B1A70FC
:400540004023104A137002321370082302F21D2213702021033211702D3213700A2000F0A9F93D7034704422074B1A70F8BD00BFCF010049F8460040F94600406E580040EB
:400580002D510040095900407658004008B500F0C1FC08BD38B572B63A4A137843F00403137000240CE0384D630019194A0011462A44084691882858FFF72AFF0134E4B2B3
:4005C000072CF0D900240BE02F49A3001819420088180622416B006BFFF7D8FF0134E4B2002CF1D029494FF09040FFF7F7FE284A137843F0020313701032137843F00203D5
:400600001370244C237843F040032370A2F58632513A137843F01003137008221E491F48FFF7B4FF0A221E491E48FFF7AFFF08221D491E48FFF7AAFF08221D491D48FFF737
:40064000A5FF0A221C491D48FFF7A0FF08221C491C48FFF79BFF1C4A137843F0080313701A4D61232B70FFF7D9FE81232B700122174B1A70FFF74AFF0E2221461548FFF74C
:4006800085FF38BDE84600408C1100009400004803500140A04300408C0800480251004094080048C0510040A0080048F2510040A808004812510040B008004820510040C0
:4006C000BC08004832510040224300400048004004000840B043004008B500F0EDFB03680C2B00D1FEE7FEE708B5104E104D16E029686B68AC68002204E051F8040B43F82E
:40070000040B0432A242F8D1E868002203E0002143F8041B04328242F9D11035013E002EE6D100F0CFFBFFF7ADFCFEE701000000F811000008B5104A104B1A60104A1368C1
:4007400043F40073136000230AE0032B03D80D4A52F8231000E00C490C4A42F8231001332F2BF2D90A4B1A780A4B1A70074A0A4B1A60FFF70FFF08BD0004FA050CED00E096
:4007800014ED00E000000000D90600000080FF1FBC760040C080FF1F08ED00E0024A137843F080031370704777650040014B1870704700BF07650040014B1870704700BF13
:4007C00047650040014B1870704700BF27650040014B1870704700BF37650040014B1870704700BF87650040014B1878704700BF67650040014B1878704700BF57650040AF
:4008000008B501E0FFF7F6FFFFF7EEFF10F0100FF8D108BD10B5134A137803F0C00343F009031370104C237843F001032370FF20FFF7BCFFFF20FFF7BFFF2820FFF7C2FF17
:400840002820FFF7C5FF0020FFF7C8FF00F02CFB237843F01003237000F02AFBFFF7D0FF10BD00BF776500409765004008B5054B1B7823B9FFF7CEFF0122024B1A70FFF721
:400880008DFF08BD4485FF1F10B5044605E0084B186800F001FBA4F50044B4F5004FF6D8034B586800FB04F000F0F6FA10BD00BFD480FF1F08B5034B1B7A00FB03F000F051
:4008C000EBFA08BDD480FF1F044A137803F07F03C001C0B218431070704700BF30510040044A137803F0FE0300F0010018431070704700BFF0510040044A137803F0DF030B
:40090000400100F0200018431070704720510040014B1B685864704708ED00E04001C0B2014B1870704700BF01E400E00222014B1A60704700E100E00222014B1A60704747
:4009400080E100E010B50446FFF7F6FF2046FFF7DFFF0720FFF7E2FFFFF7E8FF10BD00BF7222084B1A702022A3F580731A700622A1331A70472210331A700022B03B1A7080
:40098000704700BF8865004010B500F08DFA04460A4A137843F020031370A2F58072137843F0100313700132137843F01003137000F01AF8204600F07BFA10BD986500401B
:4009C00008B5054B1B7823B9FFF7CAFF0122024B1A70FFF7D9FF08BD4585FF1F014B1878C009704711510040054A137843F0020313701032137843F002031370704700BFB6
:400A0000A2430040044A137803F0DF03400100F02000184310707047F0510040044A137803F0F10300F00E0018431070704700BF7D500040084A137843F002031370103289
:400A4000137843F00203137002F65932137843F001031370704700BFA3430040014B1870704700BF0F4F0040014B1878704700BF0F4F0040014B188880B27047104F004080
:400A8000014B1880704700BF104F0040014B188880B27047144F0040014B1880704700BF124F004008B5164A137803F0010313700232137803F0FC031370124B1A7802F093
:400AC000CF021A701A7842F030021A701A7802F0F0021A701A7842F00F021A700A4A137843F00103137045F6BF50FFF7C9FF45F6BF50FFF7D1FF0820FFF7B0FF08BD00BFBA
:400B00000C4F0040174F00400D4F004008B5054B1B7823B9FFF7C6FF0122024B1A70FFF789FF08BD4785FF1F084A137843F0080313701032137843F00803137002F67132B3
:400B4000137843F001031370704700BFA3430040014B1870704700BF274F0040014B1878704700BF274F0040014B188880B27047284F0040014B1880704700BF284F0040EF
:400B8000014B188880B270472C4F0040014B1880704700BF2A4F004008B5164A137803F0010313700232137803F0FC031370124B1A7802F0CF021A701A7842F030021A7080
:400BC0001A7802F0F0021A701A7842F00F021A700A4A137843F00103137045F6BF50FFF7C9FF45F6BF50FFF7D1FF0820FFF7B0FF08BD00BF244F00402F4F0040254F00406F
:400C000008B5054B1B7823B9FFF7C6FF0122024B1A70FFF789FF08BD4885FF1F084A137843F0040313701032137843F00403137002F66532137843F001031370704700BFE7
:400C4000A3430040014B1870704700BF1B4F0040014B1878704700BF1B4F0040014B188880B270471C4F0040014B1880704700BF1C4F0040014B188880B27047204F004055
:400C8000014B1880704700BF1E4F004008B5164A137803F0010313700232137803F0FC031370124B1A7802F0CF021A701A7842F030021A701A7802F0F0021A701A7842F057
:400CC0000F021A700A4A137843F00103137045F6BF50FFF7C9FF45F6BF50FFF7D1FF0820FFF7B0FF08BD00BF184F0040234F0040194F004008B5054B1B7823B9FFF7C6FF1F
:400D00000122024B1A70FFF789FF08BD4985FF1F044A137803F0EF03000100F01000184310707047C0510040044A137803F0F10300F00E0018431070704700BF64500040E5
:400D4000044A137803F0EF03000100F01000184310707047F0510040044A137803F0F10300F00E0018431070704700BF7C500040084A137843F0010313701032137843F0EF
:400D80000103137002F64D32137843F001031370704700BFA3430040014B1870704700BF034F0040014B1878704700BF034F0040014B188880B27047044F0040014B188048
:400DC000704700BF044F0040014B188880B27047084F0040014B1880704700BF064F004008B5164A137803F0010313700232137803F0FC031370124B1A7802F0CF021A70FD
:400E00001A7842F030021A701A7802F0F0021A701A7842F00F021A700A4A137843F00103137045F6BF50FFF7C9FF45F6BF50FFF7D1FF0820FFF7B0FF08BD00BF004F004042
:400E40000B4F0040014F004008B5054B1B7823B9FFF7C6FF0122024B1A70FFF789FF08BD4A85FF1F044A137803F0EF03000100F0100018431070704730510040044A1378FC
:400E800003F0F10300F00E0018431070704700BF1C500040000000000230800803D000BF01380046FCD17047EFF3108072B6704780F31088704700BF014B1868704700BFED
:400EC0001085FF1F70B50F4E0F4D761BB61018BF002405D0013455F8043B9847A642F9D10A4E0B4D00F074F9761BB61018BF002406D0013455F8043B9847A642F9D170BD34
:400F000070BD00BFDC110000DC110000E8110000DC110000844641EA000313F0030349D1403A23D30B6803604B6843608B688360CB68C3600B6903614B6943618B6983611A
:400F4000CB69C3610B6A03624B6A43628B6A8362CB6AC3620B6B03634B6B43638B6B8363CB6BC36340304031403ADBD230320BD30B6803604B6843608B688360CB68C360A1
:400F800010301031103AF3D20C3205D351F8043B40F8043B043AF9D2043208D0D2071CBF11F8013B00F8013B01D30B8803806046704700BF082A13D38B07B1D010F0030311
:400FC000AED0C3F10403D21ADB071CBF11F8013B00F8013BA4D331F8023B20F8023B9FE7043AD9D3013A11F8013B00F8013BF9D20B7803704B7843708B78837060467047B6
:4010000070B4840746D0541E002A41D0CDB2034602E0621EE4B3144603F8015B9A07F8D1032C2ED9CDB245EA05250F2C45EA054519D9264603F11002103E0F2E42F8105C0B
:4010400042F80C5C42F8085C42F8045C02F11002F2D8A4F1100222F00F0204F00F041032032C13440DD91E462246043A032A46F8045BFAD8221F22F003020432134404F0C9
:4010800003042CB1C9B21C4403F8011BA342FBD170BC704714460346C2E700BF024B13B1024800F005B8704700000000BD100000002301461A46184600F014B838B5074D0A
:4010C000074C2C1BA41005D0013C55F8043D9847002CF9D1BDE8384000F086B8F8110000F41100002DE9F047254C064625688846D5F8484192469946C4B360681F2817DCE9
:40110000411C76B104EB8003C3F888A0D4F88851012282401543022EC4F88851C3F808911ED0831C6160002044F82380BDE8F087144B03B34FF4C870AFF300800446D0B1F5
:40114000D5F84831002784E888003846C5F848410121C4F88871C4F88C71002EE1D0D1E7D4F88C311A43C4F88C21DAE705F5A674C5F84841C1E74FF0FF30BDE8F08700BFC8
:40118000CC1100000000000000000000C84900401900004F0040300040510040300000000140001000140140000800400140000A004C0140000200500140200060520040BD
:4011C000840800480600000043000000E880FF1FF8B500BFF8BC08BC9E4670479D1000004D00000035070000F8B500BFF8BC08BC9E4670472900000008120000C880FF1F6F
:4012000050040000380000000000000010271027102710270000E02EC05D00001800000000366E010000000000000000D483FF1F3C84FF1FA484FF1F0000000000000000C5
:4012400000000000000000000000000000000000000000000000000000000000C8110000000000000000000000000000000000000000000000000000000000000000000095
:40128000000000000000000000000000000000000000000000000000000000000000000000000000000000000000000000000000000000000000000000000000000000002E
:4012C0000000000000000000000000000000000001000000000000000E33CDAB34126DE6ECDE05000B000000000000000000000000000000000000000000000000000000C1
:4013000000000000000000000000000000000000000000000000000000000000000000000000000000000000000000000000000000000000000000000000000000000000AD
:40134000000000000000000000000000000000000000000000000000000000000000000000000000000000000000000000000000000000000000000000000000000000006D
:40138000000000000000000000000000000000000000000000000000000000000000000000000000000000000000000000000000000000000000000000000000000000002D
:4013C00000000000000000000000000000000000000000000000000000000000000000000000000000000000000000000000000000000000000000000000000000000000ED
:4014000000000000000000000000000000000000000000000000000000000000000000000000000000000000000000000000000000000000000000000000000000000000AC
:40144000000000000000000000000000000000000000000000000000000000000000000000000000000000000000000000000000000000000000000000000000000000006C
:40148000000000000000000000000000000000000000000000000000000000000000000000000000000000000000000000000000000000000000000000000000000000002C
:4014C00000000000000000000000000000000000000000000000000000000000000000000000000000000000000000000000000000000000000000000000000000000000EC
:4015000000000000000000000000000000000000000000000000000000000000000000000000000000000000000000000000000000000000000000000000000000000000AB
:40154000000000000000000000000000000000000000000000000000000000000000000000000000000000000000000000000000000000000000000000000000000000006B
:40158000000000000000000000000000000000000000000000000000000000000000000000000000000000000000000000000000000000000000000000000000000000002B
:4015C00000000000000000000000000000000000000000000000000000000000000000000000000000000000000000000000000000000000000000000000000000000000EB
:4016000000000000000000000000000000000000000000000000000000000000000000000000000000000000000000000000000000000000000000000000000000000000AA
:4016400000000000000000000000000000000000E880FF1F0000000000000000000000000000000000000000000000000000000000000000000000000000000000000000E4
:40168000000000000000000000000000000000000000000000000000000000000000000000000000000000000000000000000000000000000000000000000000000000002A
:4016C00000000000000000000000000000000000000000000000000000000000000000000000000000000000000000000000000000000000000000000000000000000000EA
:4017000000000000000000000000000000000000000000000000000000000000000000000000000000000000000000000000000000000000000000000000000000000000A9
:401740000000000000000000000000000000000000000000000000000000000000000000000000000000000000000000000000000000000000000000000000000000000069
:020000040003F7
:0200000480007A
:40000000084F004003520040015B00400364004003650040010101400103014001050140020701404E08014042090140040A01400D0B0140680C0140370D0140010F01403A
:40004000111501405E16014041170140581801405D190140591A0140541B014005400140034101400E4201400943014002440140054501400546014004470140154801400E
:400080001E490140104C0140104D01400A5001400251014001800A4E0D80164E1980221E25802E4E1820191079022F848838890F8C0F870F88728B0FE604E602E2088B0473
:4000C000EC0204180A04103F143C160218271A181C10201C22212301240428082E232F013101321F36383A283F015418580459045B045C015D105F018204850386048714A4
:400100008A018B088C038D138F0C90029403951397049920A604AB15AD0AAE04AF14B10FB204B320B403B710B820BB02BE14BF44C056C103C50EC6B0C70CC819C9FFCAFF83
:40014000CBFFCEF0CF44D00CD401D804D904DA04DB04DC10DD11DF01E6C0EA40EB02006001010208032805100610080109080A400C900D010E2013481588160817011804FE
:400180001A201D041E201F5020402246274028012B082C402F423108322035803740386841084A2A5024530458225A885E026408658089018B1090209120924293409440E2
:4001C00096209E40A108A420A708AF40C06FC2FCC4F5CA9CCC06CE0ED002D20CD68FD830E620B880BE40D804DF011F408740902091209242944096209E40A108A420A708B2
:40020000B510B720080D0A020B011302160D19031A081D011E0425013001310232023301340C36083AA03E013F014065420449FF4AFF4BFF4F01501854035604580459048E
:400240005A045B045C225D225F016040624064406540668068806A806C806E808303844089098BD08C118D108E068FAC900C92139411950C960E97719914A1DCA208A3223B
:40028000A60CA820AA03AB20AD10AF40B00FB11FB230B3E0B440B808BA02BB08BE10C065C204C5ECC720C823C9FFCAFFCBFFCD83CE03CF01D018D804D904DA04DC11DD0296
:4002C000DF01E040E240E440E540E680E880EA80EC80EE8000400320051009080A400D800E1810041250182819211A401DC01E181F122109220127A0280429012A402B0866
:400300002F103020310835503602386039023A103E1042804302468049204A024B054C044E0252025FA56740874089109620C045C2ECC40ECA4DCCB6CE2DD081D23CD6F008
:40034000D880821082018A028B028F109E019F10A202A702B001B2A0B610E048E284E624E810EA8DEC8002020A01110217011A012301270631023201330134023704402070
:40038000410545014602480549FF4AFF4BFF4DA04F0450185280580459045A045B045C435D335F01604062C06440654066C068C06AC06CC06EC0850886088A048C018E021F
:4003C00090039304940397029A049B02A002A201A301AA08AF01B102B204B304B403B501B608B708BE44BF50C060C103C5D2C615C80FC9FFCAFFCBFFCDA0CF04D018D28000
:40040000D407D804D904DA04DB04DC41DD44DF01E040E2C0E440E540E6C0E8C0EAC0ECC0EEC00030031205100640080209080A080F0810041102180819041B801D301F049D
:4004400022AE276228012A012C802F20310232083320360837023B0440104520481049014A084F88508051805320574059055A105B40710276408002840485888B048C0471
:400480008D018FA09304C057C24EC40ACAC9CCC7CE02D022D214D60FE28AE402E615E844EC80EE0401010504060208020D030E021001111F13201401151C172318021933D2
:4004C0001B0C1D022108253F28012B232D0C32013310350F3602372C38803BA03F044064420245EC4602480749FF4AFF4BFF4F01501856025712580459045A045B045C1167
:400500005D155F016040624064406540668068806A806C806E8080018603890491029501B001B102B304B501B602BF15C002C604C9FFCA07CBFFCC40CD20CEF0CF05D0085D
:40054000D804D904DA04DC04DD01DF01E040E1A8E240E32000090504060407010C100E400F20171018811D081F44210222102310261427012C812F143008320134103504B1
:400580003610374139203C403E0940044404468048104E084F055240544056805D105E28660467206C046E446F1074807618800481028210831084048604874088018A10E2
:4005C0008C088D488F4090049120920293209588984099049C189D109E589F01A008A490A601A702AB08AC28AF04B002B101B220B720C0ECC270C440CAF0CCF3CED4D0A4CA
:40060000D220D640E051E840EA02EC80EE0400200210031004100620080309600A0C0B0E0D651120123013491520160F17431C031E0C2005220A280529802A0A2B0F310FDA
:40064000323033E0340F37103B0E3E045283580459045B045C555D505F0180848230860688068C268EC894E098E09E06A101A206A442A631A806B0E0B206B301B401B618A9
:40068000BE40BF04C063C102C204C401C7CEC830C9FFCAFFCBFFCC62CDA0CEF0CF41D00CD403D804D904DA04DB04DC01DD51DF01E640E702E910EA30EB10ED10EE10EF128A
:4006C000000A030404400504060407400A520D400E040F2013221518170119201A101B041C401D901F08201222012320260428042B042F80320133043810394244404588EB
:4007000046044D10550457025C805D205F0569406B067240824D8308880489058A018D048F8091909204930594409508960198C099049A049B419C049D10A108A310A6091A
:40074000A702AF10B0C0B440C0FEC2EDC47ACA84CC03CE0DD0F0D220D6F0E048E280E6C0E830EA05EC80EE30338834208020CC70E6208708A788E6401B421C401D803E1058
:400780005B085F0867808748A780C6F0CE20D6C0D880E2106B08904096109B08A342A780AD80DA40EC401020C40803808820A020C008E60402100780B780C00CEA028B80D7
:4007C0009A109B80E60424085840650268016F027202820288408C019610ABC0B302B440C820D480D880DAC0DC20E620E820EE200A201308164060016680710175088102A4
:40080000864089088A808E10900199019D029F08A901AA10AF02B001B308B404C210C430D6C0DC80DE20E010E620EAB00C10132814401F20340279017F408210A720AB204C
:40084000AE10C201C40EC601CC01DE0310807210874088D0921097809850AB28B101B402C408DC01E205E601E808EC01000601010C020D010E06103A11011A1A1C321D011B
:40088000003F03C0028000004300000000808000000004008300409093008300000000000033330002000000800B0B000000000004000126220000008000000000F0F00059
:4008C0006000000000000000000000000000000000000000000000000000000000000000000000000000000000000000000000000000000000000000000000000000000098
:4009000000000000000000000000000000000000000000000000000000000000000000000000000000000000000000000000000000000000000000000000000000000000B7
:400940000000000000000000000000000000000000000000000000000000000000000000000000000000000000000000000000000000000000000000000000000000000077
:400980000000000000000000000000000000000000000000000000000000000000000000000000000000000000000000000000000000000000000000000000000000000037
:4009C00000000000000000000000000000000000000000000000000000000000000000000000000000000000000000000000000000000000000000000000000000000000F7
:0200000490006A
:0400000000004005B7
:0200000490105A
:04000000BC90ACAF55
:0200000490303A
:020000005D5A47
:0200000490402A
:4000000000000000000000000000000000000000000000000000000000000000000000000000000000000000000000000000000000000000000000000000000000000000C0
:400040000000000000000000000000000000000000000000000000000000000000000000000000000000000000000000000000000000000000000000000000000000000080
:400080000000000000000000000000000000000000000000000000000000000000000000000000000000000000000000000000000000000000000000000000000000000040
:4000C0000000000000000000000000000000000000000000000000000000000000000000000000000000000000000000000000000000000000000000000000000000000000
:0200000490501A
:0C00000000012E16106900012E1F6DC3B8
:00000001FF